{
  "_format": "hh-sol-artifact-1",
  "contractName": "NFTMarketPlace",
  "sourceName": "contracts/NFTMarketPlace.sol",
  "abi": [
    {
      "inputs": [],
      "stateMutability": "nonpayable",
      "type": "constructor"
    },
    {
      "inputs": [
        {
          "internalType": "address",
          "name": "sender",
          "type": "address"
        },
        {
          "internalType": "uint256",
          "name": "tokenId",
          "type": "uint256"
        },
        {
          "internalType": "address",
          "name": "owner",
          "type": "address"
        }
      ],
      "name": "ERC721IncorrectOwner",
      "type": "error"
    },
    {
      "inputs": [
        {
          "internalType": "address",
          "name": "operator",
          "type": "address"
        },
        {
          "internalType": "uint256",
          "name": "tokenId",
          "type": "uint256"
        }
      ],
      "name": "ERC721InsufficientApproval",
      "type": "error"
    },
    {
      "inputs": [
        {
          "internalType": "address",
          "name": "approver",
          "type": "address"
        }
      ],
      "name": "ERC721InvalidApprover",
      "type": "error"
    },
    {
      "inputs": [
        {
          "internalType": "address",
          "name": "operator",
          "type": "address"
        }
      ],
      "name": "ERC721InvalidOperator",
      "type": "error"
    },
    {
      "inputs": [
        {
          "internalType": "address",
          "name": "owner",
          "type": "address"
        }
      ],
      "name": "ERC721InvalidOwner",
      "type": "error"
    },
    {
      "inputs": [
        {
          "internalType": "address",
          "name": "receiver",
          "type": "address"
        }
      ],
      "name": "ERC721InvalidReceiver",
      "type": "error"
    },
    {
      "inputs": [
        {
          "internalType": "address",
          "name": "sender",
          "type": "address"
        }
      ],
      "name": "ERC721InvalidSender",
      "type": "error"
    },
    {
      "inputs": [
        {
          "internalType": "uint256",
          "name": "tokenId",
          "type": "uint256"
        }
      ],
      "name": "ERC721NonexistentToken",
      "type": "error"
    },
    {
      "inputs": [
        {
          "internalType": "address",
          "name": "owner",
          "type": "address"
        }
      ],
      "name": "OwnableInvalidOwner",
      "type": "error"
    },
    {
      "inputs": [
        {
          "internalType": "address",
          "name": "account",
          "type": "address"
        }
      ],
      "name": "OwnableUnauthorizedAccount",
      "type": "error"
    },
    {
      "anonymous": false,
      "inputs": [
        {
          "indexed": true,
          "internalType": "address",
          "name": "owner",
          "type": "address"
        },
        {
          "indexed": true,
          "internalType": "address",
          "name": "approved",
          "type": "address"
        },
        {
          "indexed": true,
          "internalType": "uint256",
          "name": "tokenId",
          "type": "uint256"
        }
      ],
      "name": "Approval",
      "type": "event"
    },
    {
      "anonymous": false,
      "inputs": [
        {
          "indexed": true,
          "internalType": "address",
          "name": "owner",
          "type": "address"
        },
        {
          "indexed": true,
          "internalType": "address",
          "name": "operator",
          "type": "address"
        },
        {
          "indexed": false,
          "internalType": "bool",
          "name": "approved",
          "type": "bool"
        }
      ],
      "name": "ApprovalForAll",
      "type": "event"
    },
    {
      "anonymous": false,
      "inputs": [
        {
          "indexed": true,
          "internalType": "uint256",
          "name": "tokenId",
          "type": "uint256"
        },
        {
          "indexed": false,
          "internalType": "address",
          "name": "winner",
          "type": "address"
        },
        {
          "indexed": false,
          "internalType": "uint256",
          "name": "amount",
          "type": "uint256"
        }
      ],
      "name": "AuctionFinalized",
      "type": "event"
    },
    {
      "anonymous": false,
      "inputs": [
        {
          "indexed": true,
          "internalType": "uint256",
          "name": "tokenId",
          "type": "uint256"
        },
        {
          "indexed": false,
          "internalType": "uint256",
          "name": "endTime",
          "type": "uint256"
        }
      ],
      "name": "AuctionStarted",
      "type": "event"
    },
    {
      "anonymous": false,
      "inputs": [
        {
          "indexed": false,
          "internalType": "uint256",
          "name": "_fromTokenId",
          "type": "uint256"
        },
        {
          "indexed": false,
          "internalType": "uint256",
          "name": "_toTokenId",
          "type": "uint256"
        }
      ],
      "name": "BatchMetadataUpdate",
      "type": "event"
    },
    {
      "anonymous": false,
      "inputs": [
        {
          "indexed": true,
          "internalType": "uint256",
          "name": "tokenId",
          "type": "uint256"
        },
        {
          "indexed": true,
          "internalType": "address",
          "name": "bidder",
          "type": "address"
        },
        {
          "indexed": false,
          "internalType": "uint256",
          "name": "amount",
          "type": "uint256"
        }
      ],
      "name": "BidPlaced",
      "type": "event"
    },
    {
      "anonymous": false,
      "inputs": [
        {
          "indexed": true,
          "internalType": "address",
          "name": "user",
          "type": "address"
        },
        {
          "indexed": false,
          "internalType": "uint256",
          "name": "amount",
          "type": "uint256"
        }
      ],
      "name": "FundsWithdrawn",
      "type": "event"
    },
    {
      "anonymous": false,
      "inputs": [
        {
          "indexed": false,
          "internalType": "uint256",
          "name": "_tokenId",
          "type": "uint256"
        }
      ],
      "name": "MetadataUpdate",
      "type": "event"
    },
    {
      "anonymous": false,
      "inputs": [
        {
          "indexed": true,
          "internalType": "address",
          "name": "buyer",
          "type": "address"
        },
        {
          "indexed": true,
          "internalType": "uint256",
          "name": "tokenId",
          "type": "uint256"
        },
        {
          "indexed": false,
          "internalType": "uint256",
          "name": "price",
          "type": "uint256"
        }
      ],
      "name": "NFTBought",
      "type": "event"
    },
    {
      "anonymous": false,
      "inputs": [
        {
          "indexed": true,
          "internalType": "address",
          "name": "seller",
          "type": "address"
        },
        {
          "indexed": true,
          "internalType": "uint256",
          "name": "tokenId",
          "type": "uint256"
        },
        {
          "indexed": false,
          "internalType": "uint256",
          "name": "price",
          "type": "uint256"
        }
      ],
      "name": "NFTListed",
      "type": "event"
    },
    {
      "anonymous": false,
      "inputs": [
        {
          "indexed": true,
          "internalType": "address",
          "name": "creator",
          "type": "address"
        },
        {
          "indexed": true,
          "internalType": "uint256",
          "name": "tokenId",
          "type": "uint256"
        }
      ],
      "name": "NFTMinted",
      "type": "event"
    },
    {
      "anonymous": false,
      "inputs": [
        {
          "indexed": true,
          "internalType": "address",
          "name": "previousOwner",
          "type": "address"
        },
        {
          "indexed": true,
          "internalType": "address",
          "name": "newOwner",
          "type": "address"
        }
      ],
      "name": "OwnershipTransferred",
      "type": "event"
    },
    {
      "anonymous": false,
      "inputs": [
        {
          "indexed": true,
          "internalType": "address",
          "name": "from",
          "type": "address"
        },
        {
          "indexed": true,
          "internalType": "address",
          "name": "to",
          "type": "address"
        },
        {
          "indexed": true,
          "internalType": "uint256",
          "name": "tokenId",
          "type": "uint256"
        }
      ],
      "name": "Transfer",
      "type": "event"
    },
    {
      "inputs": [
        {
          "internalType": "address",
          "name": "to",
          "type": "address"
        },
        {
          "internalType": "uint256",
          "name": "tokenId",
          "type": "uint256"
        }
      ],
      "name": "approve",
      "outputs": [],
      "stateMutability": "nonpayable",
      "type": "function"
    },
    {
      "inputs": [
        {
          "internalType": "uint256",
          "name": "",
          "type": "uint256"
        }
      ],
      "name": "auctions",
      "outputs": [
        {
          "internalType": "uint256",
          "name": "tokenId",
          "type": "uint256"
        },
        {
          "internalType": "address",
          "name": "seller",
          "type": "address"
        },
        {
          "internalType": "uint256",
          "name": "highestBid",
          "type": "uint256"
        },
        {
          "internalType": "address",
          "name": "highestBidder",
          "type": "address"
        },
        {
          "internalType": "uint256",
          "name": "endTime",
          "type": "uint256"
        },
        {
          "internalType": "bool",
          "name": "active",
          "type": "bool"
        }
      ],
      "stateMutability": "view",
      "type": "function"
    },
    {
      "inputs": [
        {
          "internalType": "address",
          "name": "owner",
          "type": "address"
        }
      ],
      "name": "balanceOf",
      "outputs": [
        {
          "internalType": "uint256",
          "name": "",
          "type": "uint256"
        }
      ],
      "stateMutability": "view",
      "type": "function"
    },
    {
      "inputs": [
        {
          "internalType": "uint256",
          "name": "tokenId",
          "type": "uint256"
        }
      ],
      "name": "buyNFT",
      "outputs": [],
      "stateMutability": "payable",
      "type": "function"
    },
    {
      "inputs": [],
      "name": "commissionFee",
      "outputs": [
        {
          "internalType": "uint256",
          "name": "",
          "type": "uint256"
        }
      ],
      "stateMutability": "view",
      "type": "function"
    },
    {
      "inputs": [
        {
          "internalType": "uint256",
          "name": "",
          "type": "uint256"
        }
      ],
      "name": "creatorOf",
      "outputs": [
        {
          "internalType": "address",
          "name": "",
          "type": "address"
        }
      ],
      "stateMutability": "view",
      "type": "function"
    },
    {
      "inputs": [
        {
          "internalType": "uint256",
          "name": "tokenId",
          "type": "uint256"
        }
      ],
      "name": "finalizeAuction",
      "outputs": [],
      "stateMutability": "nonpayable",
      "type": "function"
    },
    {
      "inputs": [
        {
          "internalType": "uint256",
          "name": "tokenId",
          "type": "uint256"
        }
      ],
      "name": "getApproved",
      "outputs": [
        {
          "internalType": "address",
          "name": "",
          "type": "address"
        }
      ],
      "stateMutability": "view",
      "type": "function"
    },
    {
      "inputs": [],
      "name": "getMarketplaceItems",
      "outputs": [
        {
          "components": [
            {
              "internalType": "uint256",
              "name": "tokenId",
              "type": "uint256"
            },
            {
              "internalType": "address",
              "name": "seller",
              "type": "address"
            },
            {
              "internalType": "uint256",
              "name": "price",
              "type": "uint256"
            },
            {
              "internalType": "bool",
              "name": "listed",
              "type": "bool"
            }
          ],
          "internalType": "struct NFTMarketPlace.NFT[]",
          "name": "",
          "type": "tuple[]"
        },
        {
          "components": [
            {
              "internalType": "uint256",
              "name": "tokenId",
              "type": "uint256"
            },
            {
              "internalType": "address",
              "name": "seller",
              "type": "address"
            },
            {
              "internalType": "uint256",
              "name": "highestBid",
              "type": "uint256"
            },
            {
              "internalType": "address",
              "name": "highestBidder",
              "type": "address"
            },
            {
              "internalType": "uint256",
              "name": "endTime",
              "type": "uint256"
            },
            {
              "internalType": "bool",
              "name": "active",
              "type": "bool"
            }
          ],
          "internalType": "struct NFTMarketPlace.Auction[]",
          "name": "",
          "type": "tuple[]"
        }
      ],
      "stateMutability": "view",
      "type": "function"
    },
    {
      "inputs": [],
      "name": "getWalletNFTs",
      "outputs": [
        {
          "internalType": "uint256[]",
          "name": "",
          "type": "uint256[]"
        }
      ],
      "stateMutability": "view",
      "type": "function"
    },
    {
      "inputs": [
        {
          "internalType": "address",
          "name": "owner",
          "type": "address"
        },
        {
          "internalType": "address",
          "name": "operator",
          "type": "address"
        }
      ],
      "name": "isApprovedForAll",
      "outputs": [
        {
          "internalType": "bool",
          "name": "",
          "type": "bool"
        }
      ],
      "stateMutability": "view",
      "type": "function"
    },
    {
      "inputs": [
        {
          "internalType": "uint256",
          "name": "tokenId",
          "type": "uint256"
        },
        {
          "internalType": "uint256",
          "name": "price",
          "type": "uint256"
        }
      ],
      "name": "listNFT",
      "outputs": [],
      "stateMutability": "nonpayable",
      "type": "function"
    },
    {
      "inputs": [
        {
          "internalType": "uint256",
          "name": "royaltyPercent",
          "type": "uint256"
        },
        {
          "internalType": "string",
          "name": "_tokenURI",
          "type": "string"
        }
      ],
      "name": "mintNFT",
      "outputs": [],
      "stateMutability": "nonpayable",
      "type": "function"
    },
    {
      "inputs": [
        {
          "internalType": "uint256",
          "name": "",
          "type": "uint256"
        }
      ],
      "name": "mintedTokens",
      "outputs": [
        {
          "internalType": "bool",
          "name": "",
          "type": "bool"
        }
      ],
      "stateMutability": "view",
      "type": "function"
    },
    {
      "inputs": [],
      "name": "name",
      "outputs": [
        {
          "internalType": "string",
          "name": "",
          "type": "string"
        }
      ],
      "stateMutability": "view",
      "type": "function"
    },
    {
      "inputs": [],
      "name": "nextTokenId",
      "outputs": [
        {
          "internalType": "uint256",
          "name": "",
          "type": "uint256"
        }
      ],
      "stateMutability": "view",
      "type": "function"
    },
    {
      "inputs": [
        {
          "internalType": "uint256",
          "name": "",
          "type": "uint256"
        }
      ],
      "name": "nfts",
      "outputs": [
        {
          "internalType": "uint256",
          "name": "tokenId",
          "type": "uint256"
        },
        {
          "internalType": "address",
          "name": "seller",
          "type": "address"
        },
        {
          "internalType": "uint256",
          "name": "price",
          "type": "uint256"
        },
        {
          "internalType": "bool",
          "name": "listed",
          "type": "bool"
        }
      ],
      "stateMutability": "view",
      "type": "function"
    },
    {
      "inputs": [],
      "name": "owner",
      "outputs": [
        {
          "internalType": "address",
          "name": "",
          "type": "address"
        }
      ],
      "stateMutability": "view",
      "type": "function"
    },
    {
      "inputs": [
        {
          "internalType": "uint256",
          "name": "tokenId",
          "type": "uint256"
        }
      ],
      "name": "ownerOf",
      "outputs": [
        {
          "internalType": "address",
          "name": "",
          "type": "address"
        }
      ],
      "stateMutability": "view",
      "type": "function"
    },
    {
      "inputs": [
        {
          "internalType": "address",
          "name": "",
          "type": "address"
        }
      ],
      "name": "pendingWithdrawals",
      "outputs": [
        {
          "internalType": "uint256",
          "name": "",
          "type": "uint256"
        }
      ],
      "stateMutability": "view",
      "type": "function"
    },
    {
      "inputs": [
        {
          "internalType": "uint256",
          "name": "tokenId",
          "type": "uint256"
        }
      ],
      "name": "placeBid",
      "outputs": [],
      "stateMutability": "payable",
      "type": "function"
    },
    {
      "inputs": [],
      "name": "renounceOwnership",
      "outputs": [],
      "stateMutability": "nonpayable",
      "type": "function"
    },
    {
      "inputs": [
        {
          "internalType": "uint256",
          "name": "",
          "type": "uint256"
        }
      ],
      "name": "royalties",
      "outputs": [
        {
          "internalType": "uint256",
          "name": "",
          "type": "uint256"
        }
      ],
      "stateMutability": "view",
      "type": "function"
    },
    {
      "inputs": [
        {
          "internalType": "address",
          "name": "from",
          "type": "address"
        },
        {
          "internalType": "address",
          "name": "to",
          "type": "address"
        },
        {
          "internalType": "uint256",
          "name": "tokenId",
          "type": "uint256"
        }
      ],
      "name": "safeTransferFrom",
      "outputs": [],
      "stateMutability": "nonpayable",
      "type": "function"
    },
    {
      "inputs": [
        {
          "internalType": "address",
          "name": "from",
          "type": "address"
        },
        {
          "internalType": "address",
          "name": "to",
          "type": "address"
        },
        {
          "internalType": "uint256",
          "name": "tokenId",
          "type": "uint256"
        },
        {
          "internalType": "bytes",
          "name": "data",
          "type": "bytes"
        }
      ],
      "name": "safeTransferFrom",
      "outputs": [],
      "stateMutability": "nonpayable",
      "type": "function"
    },
    {
      "inputs": [
        {
          "internalType": "address",
          "name": "operator",
          "type": "address"
        },
        {
          "internalType": "bool",
          "name": "approved",
          "type": "bool"
        }
      ],
      "name": "setApprovalForAll",
      "outputs": [],
      "stateMutability": "nonpayable",
      "type": "function"
    },
    {
      "inputs": [
        {
          "internalType": "uint256",
          "name": "tokenId",
          "type": "uint256"
        },
        {
          "internalType": "uint256",
          "name": "duration",
          "type": "uint256"
        }
      ],
      "name": "startAuction",
      "outputs": [],
      "stateMutability": "nonpayable",
      "type": "function"
    },
    {
      "inputs": [
        {
          "internalType": "bytes4",
          "name": "interfaceId",
          "type": "bytes4"
        }
      ],
      "name": "supportsInterface",
      "outputs": [
        {
          "internalType": "bool",
          "name": "",
          "type": "bool"
        }
      ],
      "stateMutability": "view",
      "type": "function"
    },
    {
      "inputs": [],
      "name": "symbol",
      "outputs": [
        {
          "internalType": "string",
          "name": "",
          "type": "string"
        }
      ],
      "stateMutability": "view",
      "type": "function"
    },
    {
      "inputs": [
        {
          "internalType": "uint256",
          "name": "tokenId",
          "type": "uint256"
        }
      ],
      "name": "tokenURI",
      "outputs": [
        {
          "internalType": "string",
          "name": "",
          "type": "string"
        }
      ],
      "stateMutability": "view",
      "type": "function"
    },
    {
      "inputs": [
        {
          "internalType": "address",
          "name": "from",
          "type": "address"
        },
        {
          "internalType": "address",
          "name": "to",
          "type": "address"
        },
        {
          "internalType": "uint256",
          "name": "tokenId",
          "type": "uint256"
        }
      ],
      "name": "transferFrom",
      "outputs": [],
      "stateMutability": "nonpayable",
      "type": "function"
    },
    {
      "inputs": [
        {
          "internalType": "address",
          "name": "newOwner",
          "type": "address"
        }
      ],
      "name": "transferOwnership",
      "outputs": [],
      "stateMutability": "nonpayable",
      "type": "function"
    },
    {
      "inputs": [],
      "name": "withdrawFunds",
      "outputs": [],
      "stateMutability": "nonpayable",
      "type": "function"
    }
  ],
  "bytecode": "0x608060405260196009553480156200001657600080fd5b50336040518060400160405280600581526020017f4d794e46540000000000000000000000000000000000000000000000000000008152506040518060400160405280600481526020017f4d4e465400000000000000000000000000000000000000000000000000000000815250816000908162000095919062000477565b508060019081620000a7919062000477565b505050600073ffffffffffffffffffffffffffffffffffffffff168173ffffffffffffffffffffffffffffffffffffffff16036200011f5760006040517f1e4fbdf7000000000000000000000000000000000000000000000000000000008152600401620001169190620005a3565b60405180910390fd5b62000130816200013760201b60201c565b50620005c0565b6000600760009054906101000a900473ffffffffffffffffffffffffffffffffffffffff16905081600760006101000a81548173ffffffffffffffffffffffffffffffffffffffff021916908373ffffffffffffffffffffffffffffffffffffffff1602179055508173ffffffffffffffffffffffffffffffffffffffff168173ffffffffffffffffffffffffffffffffffffffff167f8be0079c531659141344cd1fd0a4f28419497f9722a3daafe3b4186f6b6457e060405160405180910390a35050565b600081519050919050565b7f4e487b7100000000000000000000000000000000000000000000000000000000600052604160045260246000fd5b7f4e487b7100000000000000000000000000000000000000000000000000000000600052602260045260246000fd5b600060028204905060018216806200027f57607f821691505b60208210810362000295576200029462000237565b5b50919050565b60008190508160005260206000209050919050565b60006020601f8301049050919050565b600082821b905092915050565b600060088302620002ff7fffffffffffffffffffffffffffffffffffffffffffffffffffffffffffffffff82620002c0565b6200030b8683620002c0565b95508019841693508086168417925050509392505050565b6000819050919050565b6000819050919050565b600062000358620003526200034c8462000323565b6200032d565b62000323565b9050919050565b6000819050919050565b620003748362000337565b6200038c62000383826200035f565b848454620002cd565b825550505050565b600090565b620003a362000394565b620003b081848462000369565b505050565b5b81811015620003d857620003cc60008262000399565b600181019050620003b6565b5050565b601f8211156200042757620003f1816200029b565b620003fc84620002b0565b810160208510156200040c578190505b620004246200041b85620002b0565b830182620003b5565b50505b505050565b600082821c905092915050565b60006200044c600019846008026200042c565b1980831691505092915050565b600062000467838362000439565b9150826002028217905092915050565b6200048282620001fd565b67ffffffffffffffff8111156200049e576200049d62000208565b5b620004aa825462000266565b620004b7828285620003dc565b600060209050601f831160018114620004ef5760008415620004da578287015190505b620004e6858262000459565b86555062000556565b601f198416620004ff866200029b565b60005b82811015620005295784890151825560018201915060208501945060208101905062000502565b8683101562000549578489015162000545601f89168262000439565b8355505b6001600288020188555050505b505050505050565b600073ffffffffffffffffffffffffffffffffffffffff82169050919050565b60006200058b826200055e565b9050919050565b6200059d816200057e565b82525050565b6000602082019050620005ba600083018462000592565b92915050565b61531f80620005d06000396000f3fe6080604052600436106101ee5760003560e01c8063715018a61161010d5780639979ef45116100a0578063c87b56dd1161006f578063c87b56dd146106fc578063e808386314610739578063e985e9c514610762578063f2fde38b1461079f578063f3f43703146107c8576101ee565b80639979ef4514610662578063a22cb4651461067e578063aae46362146106a7578063b88d4fde146106d3576101ee565b806382ef0549116100dc57806382ef0549146105b85780638da5cb5b146105e357806394383f141461060e57806395d89b4114610637576101ee565b8063715018a6146104fc57806375794a3c146105135780637ef758d41461053e5780637f77f5741461057b576101ee565b806342842e0e11610185578063589a174311610154578063589a17431461041a5780636352211e146104575780636fb1eb0c1461049457806370a08231146104bf576101ee565b806342842e0e1461036a5780634fee13fc1461039357806351ed8288146103bc578063571a26a0146103d8576101ee565b80631a0c8fa0116101c15780631a0c8fa0146102c157806323b872dd146102ea57806324600fc314610313578063265aa6211461032a576101ee565b806301ffc9a7146101f357806306fdde0314610230578063081812fc1461025b578063095ea7b314610298575b600080fd5b3480156101ff57600080fd5b5061021a60048036038101906102159190613af8565b610805565b6040516102279190613b40565b60405180910390f35b34801561023c57600080fd5b50610245610866565b6040516102529190613beb565b60405180910390f35b34801561026757600080fd5b50610282600480360381019061027d9190613c43565b6108f8565b60405161028f9190613cb1565b60405180910390f35b3480156102a457600080fd5b506102bf60048036038101906102ba9190613cf8565b610914565b005b3480156102cd57600080fd5b506102e860048036038101906102e39190613e6d565b61092a565b005b3480156102f657600080fd5b50610311600480360381019061030c9190613ec9565b610a7c565b005b34801561031f57600080fd5b50610328610b7e565b005b34801561033657600080fd5b50610351600480360381019061034c9190613c43565b610d48565b6040516103619493929190613f2b565b60405180910390f35b34801561037657600080fd5b50610391600480360381019061038c9190613ec9565b610da5565b005b34801561039f57600080fd5b506103ba60048036038101906103b59190613f70565b610dc5565b005b6103d660048036038101906103d19190613c43565b611070565b005b3480156103e457600080fd5b506103ff60048036038101906103fa9190613c43565b611436565b60405161041196959493929190613fb0565b60405180910390f35b34801561042657600080fd5b50610441600480360381019061043c9190613c43565b6114bf565b60405161044e9190613cb1565b60405180910390f35b34801561046357600080fd5b5061047e60048036038101906104799190613c43565b6114f2565b60405161048b9190613cb1565b60405180910390f35b3480156104a057600080fd5b506104a9611504565b6040516104b69190614011565b60405180910390f35b3480156104cb57600080fd5b506104e660048036038101906104e1919061402c565b61150a565b6040516104f39190614011565b60405180910390f35b34801561050857600080fd5b506105116115c4565b005b34801561051f57600080fd5b506105286115d8565b6040516105359190614011565b60405180910390f35b34801561054a57600080fd5b5061056560048036038101906105609190613c43565b6115de565b6040516105729190613b40565b60405180910390f35b34801561058757600080fd5b506105a2600480360381019061059d9190613c43565b6115fe565b6040516105af9190614011565b60405180910390f35b3480156105c457600080fd5b506105cd611616565b6040516105da9190614117565b60405180910390f35b3480156105ef57600080fd5b506105f86117c4565b6040516106059190613cb1565b60405180910390f35b34801561061a57600080fd5b5061063560048036038101906106309190613f70565b6117ee565b005b34801561064357600080fd5b5061064c611a25565b6040516106599190613beb565b60405180910390f35b61067c60048036038101906106779190613c43565b611ab7565b005b34801561068a57600080fd5b506106a560048036038101906106a09190614165565b611d21565b005b3480156106b357600080fd5b506106bc611d37565b6040516106ca9291906143f1565b60405180910390f35b3480156106df57600080fd5b506106fa60048036038101906106f591906144c9565b61210e565b005b34801561070857600080fd5b50610723600480360381019061071e9190613c43565b612133565b6040516107309190613beb565b60405180910390f35b34801561074557600080fd5b50610760600480360381019061075b9190613c43565b6121a5565b005b34801561076e57600080fd5b506107896004803603810190610784919061454c565b612607565b6040516107969190613b40565b60405180910390f35b3480156107ab57600080fd5b506107c660048036038101906107c1919061402c565b61269b565b005b3480156107d457600080fd5b506107ef60048036038101906107ea919061402c565b612721565b6040516107fc9190614011565b60405180910390f35b6000634906490660e01b7bffffffffffffffffffffffffffffffffffffffffffffffffffffffff1916827bffffffffffffffffffffffffffffffffffffffffffffffffffffffff1916148061085f575061085e82612739565b5b9050919050565b606060008054610875906145bb565b80601f01602080910402602001604051908101604052809291908181526020018280546108a1906145bb565b80156108ee5780601f106108c3576101008083540402835291602001916108ee565b820191906000526020600020905b8154815290600101906020018083116108d157829003601f168201915b5050505050905090565b60006109038261281b565b5061090d826128a3565b9050919050565b61092682826109216128e0565b6128e8565b5050565b6103e882111561096f576040517f08c379a000000000000000000000000000000000000000000000000000000000815260040161096690614638565b60405180910390fd5b600060016008546109809190614687565b90508060088190555061099333826128fa565b61099d81836129f3565b33600f600083815260200190815260200160002060006101000a81548173ffffffffffffffffffffffffffffffffffffffff021916908373ffffffffffffffffffffffffffffffffffffffff1602179055506001600e600083815260200190815260200160002060006101000a81548160ff02191690831515021790555082600b600083815260200190815260200160002081905550803373ffffffffffffffffffffffffffffffffffffffff167f4cc0a9c4a99ddc700de1af2c9f916a7cbfdb71f14801ccff94061ad1ef8a804060405160405180910390a3505050565b600073ffffffffffffffffffffffffffffffffffffffff168273ffffffffffffffffffffffffffffffffffffffff1603610aee5760006040517f64a0ae92000000000000000000000000000000000000000000000000000000008152600401610ae59190613cb1565b60405180910390fd5b6000610b028383610afd6128e0565b612a4f565b90508373ffffffffffffffffffffffffffffffffffffffff168173ffffffffffffffffffffffffffffffffffffffff1614610b78578382826040517f64283d7b000000000000000000000000000000000000000000000000000000008152600401610b6f939291906146bb565b60405180910390fd5b50505050565b6000600d60003373ffffffffffffffffffffffffffffffffffffffff1673ffffffffffffffffffffffffffffffffffffffff16815260200190815260200160002054905060008111610c05576040517f08c379a0000000000000000000000000000000000000000000000000000000008152600401610bfc9061473e565b60405180910390fd5b6000600d60003373ffffffffffffffffffffffffffffffffffffffff1673ffffffffffffffffffffffffffffffffffffffff1681526020019081526020016000208190555060003373ffffffffffffffffffffffffffffffffffffffff1682604051610c709061478f565b60006040518083038185875af1925050503d8060008114610cad576040519150601f19603f3d011682016040523d82523d6000602084013e610cb2565b606091505b5050905080610cf6576040517f08c379a0000000000000000000000000000000000000000000000000000000008152600401610ced906147f0565b60405180910390fd5b3373ffffffffffffffffffffffffffffffffffffffff167feaff4b37086828766ad3268786972c0cd24259d4c87a80f9d3963a3c3d999b0d83604051610d3c9190614011565b60405180910390a25050565b600a6020528060005260406000206000915090508060000154908060010160009054906101000a900473ffffffffffffffffffffffffffffffffffffffff16908060020154908060030160009054906101000a900460ff16905084565b610dc08383836040518060200160405280600081525061210e565b505050565b600e600083815260200190815260200160002060009054906101000a900460ff16610e25576040517f08c379a0000000000000000000000000000000000000000000000000000000008152600401610e1c9061485c565b60405180910390fd5b3373ffffffffffffffffffffffffffffffffffffffff16610e45836114f2565b73ffffffffffffffffffffffffffffffffffffffff1614610e9b576040517f08c379a0000000000000000000000000000000000000000000000000000000008152600401610e92906148c8565b60405180910390fd5b60008111610ede576040517f08c379a0000000000000000000000000000000000000000000000000000000008152600401610ed590614934565b60405180910390fd5b6040518060c001604052808381526020013373ffffffffffffffffffffffffffffffffffffffff16815260200160008152602001600073ffffffffffffffffffffffffffffffffffffffff1681526020018242610f3b9190614687565b815260200160011515815250600c60008481526020019081526020016000206000820151816000015560208201518160010160006101000a81548173ffffffffffffffffffffffffffffffffffffffff021916908373ffffffffffffffffffffffffffffffffffffffff1602179055506040820151816002015560608201518160030160006101000a81548173ffffffffffffffffffffffffffffffffffffffff021916908373ffffffffffffffffffffffffffffffffffffffff1602179055506080820151816004015560a08201518160050160006101000a81548160ff021916908315150217905550905050817ff8910119ddbef5440c54532457dfe8250a10ed39e583292818f44724b9e1344c82426110579190614687565b6040516110649190614011565b60405180910390a25050565b6000600a600083815260200190815260200160002090508060030160009054906101000a900460ff166110d8576040517f08c379a00000000000000000000000000000000000000000000000000000000081526004016110cf906149a0565b60405180910390fd5b806002015434101561111f576040517f08c379a000000000000000000000000000000000000000000000000000000000815260040161111690614a0c565b60405180910390fd5b3073ffffffffffffffffffffffffffffffffffffffff1661113f836108f8565b73ffffffffffffffffffffffffffffffffffffffff16148061118b575061118a8160010160009054906101000a900473ffffffffffffffffffffffffffffffffffffffff1630612607565b5b6111ca576040517f08c379a00000000000000000000000000000000000000000000000000000000081526004016111c190614a78565b60405180910390fd5b60006103e8600954346111dd9190614a98565b6111e79190614b09565b905060006103e8600b6000868152602001908152602001600020543461120d9190614a98565b6112179190614b09565b905060008183346112289190614b3a565b6112329190614b3a565b905082600d60006112416117c4565b73ffffffffffffffffffffffffffffffffffffffff1673ffffffffffffffffffffffffffffffffffffffff168152602001908152602001600020600082825461128a9190614687565b9250508190555080600d60008660010160009054906101000a900473ffffffffffffffffffffffffffffffffffffffff1673ffffffffffffffffffffffffffffffffffffffff1673ffffffffffffffffffffffffffffffffffffffff16815260200190815260200160002060008282546113049190614687565b9250508190555081600d6000600f600089815260200190815260200160002060009054906101000a900473ffffffffffffffffffffffffffffffffffffffff1673ffffffffffffffffffffffffffffffffffffffff1673ffffffffffffffffffffffffffffffffffffffff168152602001908152602001600020600082825461138d9190614687565b925050819055506113c38460010160009054906101000a900473ffffffffffffffffffffffffffffffffffffffff163387612c69565b60008460030160006101000a81548160ff021916908315150217905550843373ffffffffffffffffffffffffffffffffffffffff167f38bb180d23818aef357ad4b3806bac3fa13c3492c0ac9d1727381fb2422aaada346040516114279190614011565b60405180910390a35050505050565b600c6020528060005260406000206000915090508060000154908060010160009054906101000a900473ffffffffffffffffffffffffffffffffffffffff16908060020154908060030160009054906101000a900473ffffffffffffffffffffffffffffffffffffffff16908060040154908060050160009054906101000a900460ff16905086565b600f6020528060005260406000206000915054906101000a900473ffffffffffffffffffffffffffffffffffffffff1681565b60006114fd8261281b565b9050919050565b60095481565b60008073ffffffffffffffffffffffffffffffffffffffff168273ffffffffffffffffffffffffffffffffffffffff160361157d5760006040517f89c62b640000000000000000000000000000000000000000000000000000000081526004016115749190613cb1565b60405180910390fd5b600360008373ffffffffffffffffffffffffffffffffffffffff1673ffffffffffffffffffffffffffffffffffffffff168152602001908152602001600020549050919050565b6115cc612dd6565b6115d66000612e5d565b565b60085481565b600e6020528060005260406000206000915054906101000a900460ff1681565b600b6020528060005260406000206000915090505481565b606060006008549050600080600190505b8281116116b557600e600082815260200190815260200160002060009054906101000a900460ff16801561168e57503373ffffffffffffffffffffffffffffffffffffffff16611676826114f2565b73ffffffffffffffffffffffffffffffffffffffff16145b156116a257818061169e90614b6e565b9250505b80806116ad90614b6e565b915050611627565b5060008167ffffffffffffffff8111156116d2576116d1613d42565b5b6040519080825280602002602001820160405280156117005781602001602082028036833780820191505090505b509050600080600190505b8481116117b957600e600082815260200190815260200160002060009054906101000a900460ff16801561177257503373ffffffffffffffffffffffffffffffffffffffff1661175a826114f2565b73ffffffffffffffffffffffffffffffffffffffff16145b156117a6578083838151811061178b5761178a614bb6565b5b60200260200101818152505081806117a290614b6e565b9250505b80806117b190614b6e565b91505061170b565b508194505050505090565b6000600760009054906101000a900473ffffffffffffffffffffffffffffffffffffffff16905090565b600e600083815260200190815260200160002060009054906101000a900460ff1661184e576040517f08c379a00000000000000000000000000000000000000000000000000000000081526004016118459061485c565b60405180910390fd5b3373ffffffffffffffffffffffffffffffffffffffff1661186e836114f2565b73ffffffffffffffffffffffffffffffffffffffff16146118c4576040517f08c379a00000000000000000000000000000000000000000000000000000000081526004016118bb906148c8565b60405180910390fd5b60008111611907576040517f08c379a00000000000000000000000000000000000000000000000000000000081526004016118fe90614c31565b60405180910390fd5b60405180608001604052808381526020013373ffffffffffffffffffffffffffffffffffffffff16815260200182815260200160011515815250600a60008481526020019081526020016000206000820151816000015560208201518160010160006101000a81548173ffffffffffffffffffffffffffffffffffffffff021916908373ffffffffffffffffffffffffffffffffffffffff1602179055506040820151816002015560608201518160030160006101000a81548160ff021916908315150217905550905050813373ffffffffffffffffffffffffffffffffffffffff167fbbf44e68296791df5535457da734bf1017c4b233a740af6d7a89b9f1af4ecb4283604051611a199190614011565b60405180910390a35050565b606060018054611a34906145bb565b80601f0160208091040260200160405190810160405280929190818152602001828054611a60906145bb565b8015611aad5780601f10611a8257610100808354040283529160200191611aad565b820191906000526020600020905b815481529060010190602001808311611a9057829003601f168201915b5050505050905090565b6000600c600083815260200190815260200160002090508060050160009054906101000a900460ff16611b1f576040517f08c379a0000000000000000000000000000000000000000000000000000000008152600401611b1690614c9d565b60405180910390fd5b80600401544210611b65576040517f08c379a0000000000000000000000000000000000000000000000000000000008152600401611b5c90614d09565b60405180910390fd5b80600201543411611bab576040517f08c379a0000000000000000000000000000000000000000000000000000000008152600401611ba290614d75565b60405180910390fd5b600073ffffffffffffffffffffffffffffffffffffffff168160030160009054906101000a900473ffffffffffffffffffffffffffffffffffffffff1673ffffffffffffffffffffffffffffffffffffffff1614611c82578060020154600d60008360030160009054906101000a900473ffffffffffffffffffffffffffffffffffffffff1673ffffffffffffffffffffffffffffffffffffffff1673ffffffffffffffffffffffffffffffffffffffff1681526020019081526020016000206000828254611c7a9190614687565b925050819055505b348160020181905550338160030160006101000a81548173ffffffffffffffffffffffffffffffffffffffff021916908373ffffffffffffffffffffffffffffffffffffffff1602179055503373ffffffffffffffffffffffffffffffffffffffff16827f0e54eff26401bf69b81b26f60bd85ef47f5d85275c1d268d84f68d6897431c4734604051611d159190614011565b60405180910390a35050565b611d33611d2c6128e0565b8383612f23565b5050565b606080600060085490506000806000600190505b838111611dd557600a600082815260200190815260200160002060030160009054906101000a900460ff1615611d8a578280611d8690614b6e565b9350505b600c600082815260200190815260200160002060050160009054906101000a900460ff1615611dc2578180611dbe90614b6e565b9250505b8080611dcd90614b6e565b915050611d4b565b5060008267ffffffffffffffff811115611df257611df1613d42565b5b604051908082528060200260200182016040528015611e2b57816020015b611e186139e8565b815260200190600190039081611e105790505b50905060008267ffffffffffffffff811115611e4a57611e49613d42565b5b604051908082528060200260200182016040528015611e8357816020015b611e70613a28565b815260200190600190039081611e685790505b5090506000806000600190505b8781116120fc57600a600082815260200190815260200160002060030160009054906101000a900460ff1615611f9057600a6000828152602001908152602001600020604051806080016040529081600082015481526020016001820160009054906101000a900473ffffffffffffffffffffffffffffffffffffffff1673ffffffffffffffffffffffffffffffffffffffff1673ffffffffffffffffffffffffffffffffffffffff168152602001600282015481526020016003820160009054906101000a900460ff161515151581525050858481518110611f7657611f75614bb6565b5b60200260200101819052508280611f8c90614b6e565b9350505b600c600082815260200190815260200160002060050160009054906101000a900460ff16156120e957600c60008281526020019081526020016000206040518060c0016040529081600082015481526020016001820160009054906101000a900473ffffffffffffffffffffffffffffffffffffffff1673ffffffffffffffffffffffffffffffffffffffff1673ffffffffffffffffffffffffffffffffffffffff168152602001600282015481526020016003820160009054906101000a900473ffffffffffffffffffffffffffffffffffffffff1673ffffffffffffffffffffffffffffffffffffffff1673ffffffffffffffffffffffffffffffffffffffff168152602001600482015481526020016005820160009054906101000a900460ff1615151515815250508483815181106120cf576120ce614bb6565b5b602002602001018190525081806120e590614b6e565b9250505b80806120f490614b6e565b915050611e90565b50838398509850505050505050509091565b612119848484610a7c565b61212d6121246128e0565b85858585613092565b50505050565b6060600e600083815260200190815260200160002060009054906101000a900460ff16612195576040517f08c379a000000000000000000000000000000000000000000000000000000000815260040161218c9061485c565b60405180910390fd5b61219e82613243565b9050919050565b6000600c600083815260200190815260200160002090508060050160009054906101000a900460ff1661220d576040517f08c379a000000000000000000000000000000000000000000000000000000000815260040161220490614de1565b60405180910390fd5b8060040154421015612254576040517f08c379a000000000000000000000000000000000000000000000000000000000815260040161224b90614e4d565b60405180910390fd5b60008160050160006101000a81548160ff021916908315150217905550600073ffffffffffffffffffffffffffffffffffffffff168160030160009054906101000a900473ffffffffffffffffffffffffffffffffffffffff1673ffffffffffffffffffffffffffffffffffffffff16146126035760006103e860095483600201546122e09190614a98565b6122ea9190614b09565b905060006103e8600b60008681526020019081526020016000205484600201546123149190614a98565b61231e9190614b09565b90506000818385600201546123339190614b3a565b61233d9190614b3a565b90503073ffffffffffffffffffffffffffffffffffffffff1661235f866108f8565b73ffffffffffffffffffffffffffffffffffffffff1614806123ab57506123aa8460010160009054906101000a900473ffffffffffffffffffffffffffffffffffffffff1630612607565b5b6123ea576040517f08c379a00000000000000000000000000000000000000000000000000000000081526004016123e190614edf565b60405180910390fd5b82600d60006123f76117c4565b73ffffffffffffffffffffffffffffffffffffffff1673ffffffffffffffffffffffffffffffffffffffff16815260200190815260200160002060008282546124409190614687565b9250508190555080600d60008660010160009054906101000a900473ffffffffffffffffffffffffffffffffffffffff1673ffffffffffffffffffffffffffffffffffffffff1673ffffffffffffffffffffffffffffffffffffffff16815260200190815260200160002060008282546124ba9190614687565b9250508190555081600d6000600f600089815260200190815260200160002060009054906101000a900473ffffffffffffffffffffffffffffffffffffffff1673ffffffffffffffffffffffffffffffffffffffff1673ffffffffffffffffffffffffffffffffffffffff16815260200190815260200160002060008282546125439190614687565b9250508190555061259d8460010160009054906101000a900473ffffffffffffffffffffffffffffffffffffffff168560030160009054906101000a900473ffffffffffffffffffffffffffffffffffffffff1687612c69565b847f4d9113a1377d665eaa1f9168a9c9080f2e488cb820b10149de3d6d2e0f2780c78560030160009054906101000a900473ffffffffffffffffffffffffffffffffffffffff1686600201546040516125f7929190614eff565b60405180910390a25050505b5050565b6000600560008473ffffffffffffffffffffffffffffffffffffffff1673ffffffffffffffffffffffffffffffffffffffff16815260200190815260200160002060008373ffffffffffffffffffffffffffffffffffffffff1673ffffffffffffffffffffffffffffffffffffffff16815260200190815260200160002060009054906101000a900460ff16905092915050565b6126a3612dd6565b600073ffffffffffffffffffffffffffffffffffffffff168173ffffffffffffffffffffffffffffffffffffffff16036127155760006040517f1e4fbdf700000000000000000000000000000000000000000000000000000000815260040161270c9190613cb1565b60405180910390fd5b61271e81612e5d565b50565b600d6020528060005260406000206000915090505481565b60007f80ac58cd000000000000000000000000000000000000000000000000000000007bffffffffffffffffffffffffffffffffffffffffffffffffffffffff1916827bffffffffffffffffffffffffffffffffffffffffffffffffffffffff1916148061280457507f5b5e139f000000000000000000000000000000000000000000000000000000007bffffffffffffffffffffffffffffffffffffffffffffffffffffffff1916827bffffffffffffffffffffffffffffffffffffffffffffffffffffffff1916145b80612814575061281382613356565b5b9050919050565b600080612827836133c0565b9050600073ffffffffffffffffffffffffffffffffffffffff168173ffffffffffffffffffffffffffffffffffffffff160361289a57826040517f7e2732890000000000000000000000000000000000000000000000000000000081526004016128919190614011565b60405180910390fd5b80915050919050565b60006004600083815260200190815260200160002060009054906101000a900473ffffffffffffffffffffffffffffffffffffffff169050919050565b600033905090565b6128f583838360016133fd565b505050565b600073ffffffffffffffffffffffffffffffffffffffff168273ffffffffffffffffffffffffffffffffffffffff160361296c5760006040517f64a0ae920000000000000000000000000000000000000000000000000000000081526004016129639190613cb1565b60405180910390fd5b600061297a83836000612a4f565b9050600073ffffffffffffffffffffffffffffffffffffffff168173ffffffffffffffffffffffffffffffffffffffff16146129ee5760006040517f73c6ac6e0000000000000000000000000000000000000000000000000000000081526004016129e59190613cb1565b60405180910390fd5b505050565b80600660008481526020019081526020016000209081612a1391906150d4565b507ff8e1a15aba9398e019f0b49df1a4fde98ee17ae345cb5f6b5e2c27f5033e8ce782604051612a439190614011565b60405180910390a15050565b600080612a5b846133c0565b9050600073ffffffffffffffffffffffffffffffffffffffff168373ffffffffffffffffffffffffffffffffffffffff1614612a9d57612a9c8184866135c2565b5b600073ffffffffffffffffffffffffffffffffffffffff168173ffffffffffffffffffffffffffffffffffffffff1614612b2e57612adf6000856000806133fd565b6001600360008373ffffffffffffffffffffffffffffffffffffffff1673ffffffffffffffffffffffffffffffffffffffff168152602001908152602001600020600082825403925050819055505b600073ffffffffffffffffffffffffffffffffffffffff168573ffffffffffffffffffffffffffffffffffffffff1614612bb1576001600360008773ffffffffffffffffffffffffffffffffffffffff1673ffffffffffffffffffffffffffffffffffffffff168152602001908152602001600020600082825401925050819055505b846002600086815260200190815260200160002060006101000a81548173ffffffffffffffffffffffffffffffffffffffff021916908373ffffffffffffffffffffffffffffffffffffffff160217905550838573ffffffffffffffffffffffffffffffffffffffff168273ffffffffffffffffffffffffffffffffffffffff167fddf252ad1be2c89b69c2b068fc378daa952ba7f163c4a11628f55a4df523b3ef60405160405180910390a4809150509392505050565b600073ffffffffffffffffffffffffffffffffffffffff168273ffffffffffffffffffffffffffffffffffffffff1603612cdb5760006040517f64a0ae92000000000000000000000000000000000000000000000000000000008152600401612cd29190613cb1565b60405180910390fd5b6000612ce983836000612a4f565b9050600073ffffffffffffffffffffffffffffffffffffffff168173ffffffffffffffffffffffffffffffffffffffff1603612d5c57816040517f7e273289000000000000000000000000000000000000000000000000000000008152600401612d539190614011565b60405180910390fd5b8373ffffffffffffffffffffffffffffffffffffffff168173ffffffffffffffffffffffffffffffffffffffff1614612dd0578382826040517f64283d7b000000000000000000000000000000000000000000000000000000008152600401612dc7939291906146bb565b60405180910390fd5b50505050565b612dde6128e0565b73ffffffffffffffffffffffffffffffffffffffff16612dfc6117c4565b73ffffffffffffffffffffffffffffffffffffffff1614612e5b57612e1f6128e0565b6040517f118cdaa7000000000000000000000000000000000000000000000000000000008152600401612e529190613cb1565b60405180910390fd5b565b6000600760009054906101000a900473ffffffffffffffffffffffffffffffffffffffff16905081600760006101000a81548173ffffffffffffffffffffffffffffffffffffffff021916908373ffffffffffffffffffffffffffffffffffffffff1602179055508173ffffffffffffffffffffffffffffffffffffffff168173ffffffffffffffffffffffffffffffffffffffff167f8be0079c531659141344cd1fd0a4f28419497f9722a3daafe3b4186f6b6457e060405160405180910390a35050565b600073ffffffffffffffffffffffffffffffffffffffff168273ffffffffffffffffffffffffffffffffffffffff1603612f9457816040517f5b08ba18000000000000000000000000000000000000000000000000000000008152600401612f8b9190613cb1565b60405180910390fd5b80600560008573ffffffffffffffffffffffffffffffffffffffff1673ffffffffffffffffffffffffffffffffffffffff16815260200190815260200160002060008473ffffffffffffffffffffffffffffffffffffffff1673ffffffffffffffffffffffffffffffffffffffff16815260200190815260200160002060006101000a81548160ff0219169083151502179055508173ffffffffffffffffffffffffffffffffffffffff168373ffffffffffffffffffffffffffffffffffffffff167f17307eab39ab6107e8899845ad3d59bd9653f200f220920489ca2b5937696c31836040516130859190613b40565b60405180910390a3505050565b60008373ffffffffffffffffffffffffffffffffffffffff163b111561323c578273ffffffffffffffffffffffffffffffffffffffff1663150b7a02868685856040518563ffffffff1660e01b81526004016130f194939291906151fb565b6020604051808303816000875af192505050801561312d57506040513d601f19601f8201168201806040525081019061312a919061525c565b60015b6131b1573d806000811461315d576040519150601f19603f3d011682016040523d82523d6000602084013e613162565b606091505b5060008151036131a957836040517f64a0ae920000000000000000000000000000000000000000000000000000000081526004016131a09190613cb1565b60405180910390fd5b805160208201fd5b63150b7a0260e01b7bffffffffffffffffffffffffffffffffffffffffffffffffffffffff1916817bffffffffffffffffffffffffffffffffffffffffffffffffffffffff19161461323a57836040517f64a0ae920000000000000000000000000000000000000000000000000000000081526004016132319190613cb1565b60405180910390fd5b505b5050505050565b606061324e8261281b565b50600060066000848152602001908152602001600020805461326f906145bb565b80601f016020809104026020016040519081016040528092919081815260200182805461329b906145bb565b80156132e85780601f106132bd576101008083540402835291602001916132e8565b820191906000526020600020905b8154815290600101906020018083116132cb57829003601f168201915b5050505050905060006132f9613686565b9050600081510361330e578192505050613351565b60008251111561334357808260405160200161332b9291906152c5565b60405160208183030381529060405292505050613351565b61334c8461369d565b925050505b919050565b60007f01ffc9a7000000000000000000000000000000000000000000000000000000007bffffffffffffffffffffffffffffffffffffffffffffffffffffffff1916827bffffffffffffffffffffffffffffffffffffffffffffffffffffffff1916149050919050565b60006002600083815260200190815260200160002060009054906101000a900473ffffffffffffffffffffffffffffffffffffffff169050919050565b80806134365750600073ffffffffffffffffffffffffffffffffffffffff168273ffffffffffffffffffffffffffffffffffffffff1614155b1561356a5760006134468461281b565b9050600073ffffffffffffffffffffffffffffffffffffffff168373ffffffffffffffffffffffffffffffffffffffff16141580156134b157508273ffffffffffffffffffffffffffffffffffffffff168173ffffffffffffffffffffffffffffffffffffffff1614155b80156134c457506134c28184612607565b155b1561350657826040517fa9fbf51f0000000000000000000000000000000000000000000000000000000081526004016134fd9190613cb1565b60405180910390fd5b811561356857838573ffffffffffffffffffffffffffffffffffffffff168273ffffffffffffffffffffffffffffffffffffffff167f8c5be1e5ebec7d5bd14f71427d1e84f3dd0314c0f7b2291e5b200ac8c7c3b92560405160405180910390a45b505b836004600085815260200190815260200160002060006101000a81548173ffffffffffffffffffffffffffffffffffffffff021916908373ffffffffffffffffffffffffffffffffffffffff16021790555050505050565b6135cd838383613706565b61368157600073ffffffffffffffffffffffffffffffffffffffff168373ffffffffffffffffffffffffffffffffffffffff160361364257806040517f7e2732890000000000000000000000000000000000000000000000000000000081526004016136399190614011565b60405180910390fd5b81816040517f177e802f000000000000000000000000000000000000000000000000000000008152600401613678929190614eff565b60405180910390fd5b505050565b606060405180602001604052806000815250905090565b60606136a88261281b565b5060006136b3613686565b905060008151116136d357604051806020016040528060008152506136fe565b806136dd846137c7565b6040516020016136ee9291906152c5565b6040516020818303038152906040525b915050919050565b60008073ffffffffffffffffffffffffffffffffffffffff168373ffffffffffffffffffffffffffffffffffffffff16141580156137be57508273ffffffffffffffffffffffffffffffffffffffff168473ffffffffffffffffffffffffffffffffffffffff16148061377f575061377e8484612607565b5b806137bd57508273ffffffffffffffffffffffffffffffffffffffff166137a5836128a3565b73ffffffffffffffffffffffffffffffffffffffff16145b5b90509392505050565b6060600060016137d684613895565b01905060008167ffffffffffffffff8111156137f5576137f4613d42565b5b6040519080825280601f01601f1916602001820160405280156138275781602001600182028036833780820191505090505b509050600082602083010190505b60011561388a578080600190039150507f3031323334353637383961626364656600000000000000000000000000000000600a86061a8153600a858161387e5761387d614ada565b5b04945060008503613835575b819350505050919050565b600080600090507a184f03e93ff9f4daa797ed6e38ed64bf6a1f01000000000000000083106138f3577a184f03e93ff9f4daa797ed6e38ed64bf6a1f01000000000000000083816138e9576138e8614ada565b5b0492506040810190505b6d04ee2d6d415b85acef81000000008310613930576d04ee2d6d415b85acef8100000000838161392657613925614ada565b5b0492506020810190505b662386f26fc10000831061395f57662386f26fc10000838161395557613954614ada565b5b0492506010810190505b6305f5e1008310613988576305f5e100838161397e5761397d614ada565b5b0492506008810190505b61271083106139ad5761271083816139a3576139a2614ada565b5b0492506004810190505b606483106139d057606483816139c6576139c5614ada565b5b0492506002810190505b600a83106139df576001810190505b80915050919050565b604051806080016040528060008152602001600073ffffffffffffffffffffffffffffffffffffffff168152602001600081526020016000151581525090565b6040518060c0016040528060008152602001600073ffffffffffffffffffffffffffffffffffffffff16815260200160008152602001600073ffffffffffffffffffffffffffffffffffffffff168152602001600081526020016000151581525090565b6000604051905090565b600080fd5b600080fd5b60007fffffffff0000000000000000000000000000000000000000000000000000000082169050919050565b613ad581613aa0565b8114613ae057600080fd5b50565b600081359050613af281613acc565b92915050565b600060208284031215613b0e57613b0d613a96565b5b6000613b1c84828501613ae3565b91505092915050565b60008115159050919050565b613b3a81613b25565b82525050565b6000602082019050613b556000830184613b31565b92915050565b600081519050919050565b600082825260208201905092915050565b60005b83811015613b95578082015181840152602081019050613b7a565b60008484015250505050565b6000601f19601f8301169050919050565b6000613bbd82613b5b565b613bc78185613b66565b9350613bd7818560208601613b77565b613be081613ba1565b840191505092915050565b60006020820190508181036000830152613c058184613bb2565b905092915050565b6000819050919050565b613c2081613c0d565b8114613c2b57600080fd5b50565b600081359050613c3d81613c17565b92915050565b600060208284031215613c5957613c58613a96565b5b6000613c6784828501613c2e565b91505092915050565b600073ffffffffffffffffffffffffffffffffffffffff82169050919050565b6000613c9b82613c70565b9050919050565b613cab81613c90565b82525050565b6000602082019050613cc66000830184613ca2565b92915050565b613cd581613c90565b8114613ce057600080fd5b50565b600081359050613cf281613ccc565b92915050565b60008060408385031215613d0f57613d0e613a96565b5b6000613d1d85828601613ce3565b9250506020613d2e85828601613c2e565b9150509250929050565b600080fd5b600080fd5b7f4e487b7100000000000000000000000000000000000000000000000000000000600052604160045260246000fd5b613d7a82613ba1565b810181811067ffffffffffffffff82111715613d9957613d98613d42565b5b80604052505050565b6000613dac613a8c565b9050613db88282613d71565b919050565b600067ffffffffffffffff821115613dd857613dd7613d42565b5b613de182613ba1565b9050602081019050919050565b82818337600083830152505050565b6000613e10613e0b84613dbd565b613da2565b905082815260208101848484011115613e2c57613e2b613d3d565b5b613e37848285613dee565b509392505050565b600082601f830112613e5457613e53613d38565b5b8135613e64848260208601613dfd565b91505092915050565b60008060408385031215613e8457613e83613a96565b5b6000613e9285828601613c2e565b925050602083013567ffffffffffffffff811115613eb357613eb2613a9b565b5b613ebf85828601613e3f565b9150509250929050565b600080600060608486031215613ee257613ee1613a96565b5b6000613ef086828701613ce3565b9350506020613f0186828701613ce3565b9250506040613f1286828701613c2e565b9150509250925092565b613f2581613c0d565b82525050565b6000608082019050613f406000830187613f1c565b613f4d6020830186613ca2565b613f5a6040830185613f1c565b613f676060830184613b31565b95945050505050565b60008060408385031215613f8757613f86613a96565b5b6000613f9585828601613c2e565b9250506020613fa685828601613c2e565b9150509250929050565b600060c082019050613fc56000830189613f1c565b613fd26020830188613ca2565b613fdf6040830187613f1c565b613fec6060830186613ca2565b613ff96080830185613f1c565b61400660a0830184613b31565b979650505050505050565b60006020820190506140266000830184613f1c565b92915050565b60006020828403121561404257614041613a96565b5b600061405084828501613ce3565b91505092915050565b600081519050919050565b600082825260208201905092915050565b6000819050602082019050919050565b61408e81613c0d565b82525050565b60006140a08383614085565b60208301905092915050565b6000602082019050919050565b60006140c482614059565b6140ce8185614064565b93506140d983614075565b8060005b8381101561410a5781516140f18882614094565b97506140fc836140ac565b9250506001810190506140dd565b5085935050505092915050565b6000602082019050818103600083015261413181846140b9565b905092915050565b61414281613b25565b811461414d57600080fd5b50565b60008135905061415f81614139565b92915050565b6000806040838503121561417c5761417b613a96565b5b600061418a85828601613ce3565b925050602061419b85828601614150565b9150509250929050565b600081519050919050565b600082825260208201905092915050565b6000819050602082019050919050565b6141da81613c90565b82525050565b6141e981613b25565b82525050565b6080820160008201516142056000850182614085565b50602082015161421860208501826141d1565b50604082015161422b6040850182614085565b50606082015161423e60608501826141e0565b50505050565b600061425083836141ef565b60808301905092915050565b6000602082019050919050565b6000614274826141a5565b61427e81856141b0565b9350614289836141c1565b8060005b838110156142ba5781516142a18882614244565b97506142ac8361425c565b92505060018101905061428d565b5085935050505092915050565b600081519050919050565b600082825260208201905092915050565b6000819050602082019050919050565b60c0820160008201516143096000850182614085565b50602082015161431c60208501826141d1565b50604082015161432f6040850182614085565b50606082015161434260608501826141d1565b5060808201516143556080850182614085565b5060a082015161436860a08501826141e0565b50505050565b600061437a83836142f3565b60c08301905092915050565b6000602082019050919050565b600061439e826142c7565b6143a881856142d2565b93506143b3836142e3565b8060005b838110156143e45781516143cb888261436e565b97506143d683614386565b9250506001810190506143b7565b5085935050505092915050565b6000604082019050818103600083015261440b8185614269565b9050818103602083015261441f8184614393565b90509392505050565b600067ffffffffffffffff82111561444357614442613d42565b5b61444c82613ba1565b9050602081019050919050565b600061446c61446784614428565b613da2565b90508281526020810184848401111561448857614487613d3d565b5b614493848285613dee565b509392505050565b600082601f8301126144b0576144af613d38565b5b81356144c0848260208601614459565b91505092915050565b600080600080608085870312156144e3576144e2613a96565b5b60006144f187828801613ce3565b945050602061450287828801613ce3565b935050604061451387828801613c2e565b925050606085013567ffffffffffffffff81111561453457614533613a9b565b5b6145408782880161449b565b91505092959194509250565b6000806040838503121561456357614562613a96565b5b600061457185828601613ce3565b925050602061458285828601613ce3565b9150509250929050565b7f4e487b7100000000000000000000000000000000000000000000000000000000600052602260045260246000fd5b600060028204905060018216806145d357607f821691505b6020821081036145e6576145e561458c565b5b50919050565b7f4d61782031303025000000000000000000000000000000000000000000000000600082015250565b6000614622600883613b66565b915061462d826145ec565b602082019050919050565b6000602082019050818103600083015261465181614615565b9050919050565b7f4e487b7100000000000000000000000000000000000000000000000000000000600052601160045260246000fd5b600061469282613c0d565b915061469d83613c0d565b92508282019050808211156146b5576146b4614658565b5b92915050565b60006060820190506146d06000830186613ca2565b6146dd6020830185613f1c565b6146ea6040830184613ca2565b949350505050565b7f4e6f2066756e647320746f207769746864726177000000000000000000000000600082015250565b6000614728601483613b66565b9150614733826146f2565b602082019050919050565b600060208201905081810360008301526147578161471b565b9050919050565b600081905092915050565b50565b600061477960008361475e565b915061478482614769565b600082019050919050565b600061479a8261476c565b9150819050919050565b7f5472616e73666572206661696c65640000000000000000000000000000000000600082015250565b60006147da600f83613b66565b91506147e5826147a4565b602082019050919050565b60006020820190508181036000830152614809816147cd565b9050919050565b7f546f6b656e20646f6573206e6f74206578697374000000000000000000000000600082015250565b6000614846601483613b66565b915061485182614810565b602082019050919050565b6000602082019050818103600083015261487581614839565b9050919050565b7f4e6f74206f776e65720000000000000000000000000000000000000000000000600082015250565b60006148b2600983613b66565b91506148bd8261487c565b602082019050919050565b600060208201905081810360008301526148e1816148a5565b9050919050565b7f4475726174696f6e203e20300000000000000000000000000000000000000000600082015250565b600061491e600c83613b66565b9150614929826148e8565b602082019050919050565b6000602082019050818103600083015261494d81614911565b9050919050565b7f4e4654206e6f74206c6973746564000000000000000000000000000000000000600082015250565b600061498a600e83613b66565b915061499582614954565b602082019050919050565b600060208201905081810360008301526149b98161497d565b9050919050565b7f496e73756666696369656e74207061796d656e74000000000000000000000000600082015250565b60006149f6601483613b66565b9150614a01826149c0565b602082019050919050565b60006020820190508181036000830152614a25816149e9565b9050919050565b7f4d61726b6574706c616365206e6f7420617070726f76656420746f2073656c6c600082015250565b6000614a62602083613b66565b9150614a6d82614a2c565b602082019050919050565b60006020820190508181036000830152614a9181614a55565b9050919050565b6000614aa382613c0d565b9150614aae83613c0d565b9250828202614abc81613c0d565b91508282048414831517614ad357614ad2614658565b5b5092915050565b7f4e487b7100000000000000000000000000000000000000000000000000000000600052601260045260246000fd5b6000614b1482613c0d565b9150614b1f83613c0d565b925082614b2f57614b2e614ada565b5b828204905092915050565b6000614b4582613c0d565b9150614b5083613c0d565b9250828203905081811115614b6857614b67614658565b5b92915050565b6000614b7982613c0d565b91507fffffffffffffffffffffffffffffffffffffffffffffffffffffffffffffffff8203614bab57614baa614658565b5b600182019050919050565b7f4e487b7100000000000000000000000000000000000000000000000000000000600052603260045260246000fd5b7f5072696365206d757374206265203e2030000000000000000000000000000000600082015250565b6000614c1b601183613b66565b9150614c2682614be5565b602082019050919050565b60006020820190508181036000830152614c4a81614c0e565b9050919050565b7f41756374696f6e206e6f74206163746976650000000000000000000000000000600082015250565b6000614c87601283613b66565b9150614c9282614c51565b602082019050919050565b60006020820190508181036000830152614cb681614c7a565b9050919050565b7f41756374696f6e20656e64656400000000000000000000000000000000000000600082015250565b6000614cf3600d83613b66565b9150614cfe82614cbd565b602082019050919050565b60006020820190508181036000830152614d2281614ce6565b9050919050565b7f42696420746f6f206c6f77000000000000000000000000000000000000000000600082015250565b6000614d5f600b83613b66565b9150614d6a82614d29565b602082019050919050565b60006020820190508181036000830152614d8e81614d52565b9050919050565b7f416c72656164792066696e616c697a6564000000000000000000000000000000600082015250565b6000614dcb601183613b66565b9150614dd682614d95565b602082019050919050565b60006020820190508181036000830152614dfa81614dbe565b9050919050565b7f41756374696f6e206e6f7420656e646564000000000000000000000000000000600082015250565b6000614e37601183613b66565b9150614e4282614e01565b602082019050919050565b60006020820190508181036000830152614e6681614e2a565b9050919050565b7f4d61726b6574706c616365206e6f7420617070726f76656420746f207472616e60008201527f7366657200000000000000000000000000000000000000000000000000000000602082015250565b6000614ec9602483613b66565b9150614ed482614e6d565b604082019050919050565b60006020820190508181036000830152614ef881614ebc565b9050919050565b6000604082019050614f146000830185613ca2565b614f216020830184613f1c565b9392505050565b60008190508160005260206000209050919050565b60006020601f8301049050919050565b600082821b905092915050565b600060088302614f8a7fffffffffffffffffffffffffffffffffffffffffffffffffffffffffffffffff82614f4d565b614f948683614f4d565b95508019841693508086168417925050509392505050565b6000819050919050565b6000614fd1614fcc614fc784613c0d565b614fac565b613c0d565b9050919050565b6000819050919050565b614feb83614fb6565b614fff614ff782614fd8565b848454614f5a565b825550505050565b600090565b615014615007565b61501f818484614fe2565b505050565b5b818110156150435761503860008261500c565b600181019050615025565b5050565b601f8211156150885761505981614f28565b61506284614f3d565b81016020851015615071578190505b61508561507d85614f3d565b830182615024565b50505b505050565b600082821c905092915050565b60006150ab6000198460080261508d565b1980831691505092915050565b60006150c4838361509a565b9150826002028217905092915050565b6150dd82613b5b565b67ffffffffffffffff8111156150f6576150f5613d42565b5b61510082546145bb565b61510b828285615047565b600060209050601f83116001811461513e576000841561512c578287015190505b61513685826150b8565b86555061519e565b601f19841661514c86614f28565b60005b828110156151745784890151825560018201915060208501945060208101905061514f565b86831015615191578489015161518d601f89168261509a565b8355505b6001600288020188555050505b505050505050565b600081519050919050565b600082825260208201905092915050565b60006151cd826151a6565b6151d781856151b1565b93506151e7818560208601613b77565b6151f081613ba1565b840191505092915050565b60006080820190506152106000830187613ca2565b61521d6020830186613ca2565b61522a6040830185613f1c565b818103606083015261523c81846151c2565b905095945050505050565b60008151905061525681613acc565b92915050565b60006020828403121561527257615271613a96565b5b600061528084828501615247565b91505092915050565b600081905092915050565b600061529f82613b5b565b6152a98185615289565b93506152b9818560208601613b77565b80840191505092915050565b60006152d18285615294565b91506152dd8284615294565b9150819050939250505056fea26469706673582212202f19e155219e2c696c2760c9829d3503632e1cb45780e3c103bc240bcfba647564736f6c63430008140033",
  "linkReferences": {},
  "deployedLinkReferences": {}
}