{
  "_format": "hh-sol-artifact-1",
  "contractName": "NFTMarketPlace",
  "sourceName": "contracts/NFTMarketPlace.sol",
  "abi": [
    {
      "inputs": [],
      "stateMutability": "nonpayable",
      "type": "constructor"
    },
    {
      "inputs": [
        {
          "internalType": "address",
          "name": "sender",
          "type": "address"
        },
        {
          "internalType": "uint256",
          "name": "tokenId",
          "type": "uint256"
        },
        {
          "internalType": "address",
          "name": "owner",
          "type": "address"
        }
      ],
      "name": "ERC721IncorrectOwner",
      "type": "error"
    },
    {
      "inputs": [
        {
          "internalType": "address",
          "name": "operator",
          "type": "address"
        },
        {
          "internalType": "uint256",
          "name": "tokenId",
          "type": "uint256"
        }
      ],
      "name": "ERC721InsufficientApproval",
      "type": "error"
    },
    {
      "inputs": [
        {
          "internalType": "address",
          "name": "approver",
          "type": "address"
        }
      ],
      "name": "ERC721InvalidApprover",
      "type": "error"
    },
    {
      "inputs": [
        {
          "internalType": "address",
          "name": "operator",
          "type": "address"
        }
      ],
      "name": "ERC721InvalidOperator",
      "type": "error"
    },
    {
      "inputs": [
        {
          "internalType": "address",
          "name": "owner",
          "type": "address"
        }
      ],
      "name": "ERC721InvalidOwner",
      "type": "error"
    },
    {
      "inputs": [
        {
          "internalType": "address",
          "name": "receiver",
          "type": "address"
        }
      ],
      "name": "ERC721InvalidReceiver",
      "type": "error"
    },
    {
      "inputs": [
        {
          "internalType": "address",
          "name": "sender",
          "type": "address"
        }
      ],
      "name": "ERC721InvalidSender",
      "type": "error"
    },
    {
      "inputs": [
        {
          "internalType": "uint256",
          "name": "tokenId",
          "type": "uint256"
        }
      ],
      "name": "ERC721NonexistentToken",
      "type": "error"
    },
    {
      "inputs": [
        {
          "internalType": "address",
          "name": "owner",
          "type": "address"
        }
      ],
      "name": "OwnableInvalidOwner",
      "type": "error"
    },
    {
      "inputs": [
        {
          "internalType": "address",
          "name": "account",
          "type": "address"
        }
      ],
      "name": "OwnableUnauthorizedAccount",
      "type": "error"
    },
    {
      "anonymous": false,
      "inputs": [
        {
          "indexed": true,
          "internalType": "address",
          "name": "owner",
          "type": "address"
        },
        {
          "indexed": true,
          "internalType": "address",
          "name": "approved",
          "type": "address"
        },
        {
          "indexed": true,
          "internalType": "uint256",
          "name": "tokenId",
          "type": "uint256"
        }
      ],
      "name": "Approval",
      "type": "event"
    },
    {
      "anonymous": false,
      "inputs": [
        {
          "indexed": true,
          "internalType": "address",
          "name": "owner",
          "type": "address"
        },
        {
          "indexed": true,
          "internalType": "address",
          "name": "operator",
          "type": "address"
        },
        {
          "indexed": false,
          "internalType": "bool",
          "name": "approved",
          "type": "bool"
        }
      ],
      "name": "ApprovalForAll",
      "type": "event"
    },
    {
      "anonymous": false,
      "inputs": [
        {
          "indexed": true,
          "internalType": "uint256",
          "name": "tokenId",
          "type": "uint256"
        },
        {
          "indexed": false,
          "internalType": "address",
          "name": "winner",
          "type": "address"
        },
        {
          "indexed": false,
          "internalType": "uint256",
          "name": "amount",
          "type": "uint256"
        }
      ],
      "name": "AuctionFinalized",
      "type": "event"
    },
    {
      "anonymous": false,
      "inputs": [
        {
          "indexed": true,
          "internalType": "uint256",
          "name": "tokenId",
          "type": "uint256"
        },
        {
          "indexed": false,
          "internalType": "uint256",
          "name": "endTime",
          "type": "uint256"
        }
      ],
      "name": "AuctionStarted",
      "type": "event"
    },
    {
      "anonymous": false,
      "inputs": [
        {
          "indexed": false,
          "internalType": "uint256",
          "name": "_fromTokenId",
          "type": "uint256"
        },
        {
          "indexed": false,
          "internalType": "uint256",
          "name": "_toTokenId",
          "type": "uint256"
        }
      ],
      "name": "BatchMetadataUpdate",
      "type": "event"
    },
    {
      "anonymous": false,
      "inputs": [
        {
          "indexed": true,
          "internalType": "uint256",
          "name": "tokenId",
          "type": "uint256"
        },
        {
          "indexed": true,
          "internalType": "address",
          "name": "bidder",
          "type": "address"
        },
        {
          "indexed": false,
          "internalType": "uint256",
          "name": "amount",
          "type": "uint256"
        }
      ],
      "name": "BidPlaced",
      "type": "event"
    },
    {
      "anonymous": false,
      "inputs": [
        {
          "indexed": true,
          "internalType": "address",
          "name": "user",
          "type": "address"
        },
        {
          "indexed": false,
          "internalType": "uint256",
          "name": "amount",
          "type": "uint256"
        }
      ],
      "name": "FundsWithdrawn",
      "type": "event"
    },
    {
      "anonymous": false,
      "inputs": [
        {
          "indexed": false,
          "internalType": "uint256",
          "name": "_tokenId",
          "type": "uint256"
        }
      ],
      "name": "MetadataUpdate",
      "type": "event"
    },
    {
      "anonymous": false,
      "inputs": [
        {
          "indexed": true,
          "internalType": "address",
          "name": "buyer",
          "type": "address"
        },
        {
          "indexed": true,
          "internalType": "uint256",
          "name": "tokenId",
          "type": "uint256"
        },
        {
          "indexed": false,
          "internalType": "uint256",
          "name": "price",
          "type": "uint256"
        }
      ],
      "name": "NFTBought",
      "type": "event"
    },
    {
      "anonymous": false,
      "inputs": [
        {
          "indexed": true,
          "internalType": "address",
          "name": "seller",
          "type": "address"
        },
        {
          "indexed": true,
          "internalType": "uint256",
          "name": "tokenId",
          "type": "uint256"
        },
        {
          "indexed": false,
          "internalType": "uint256",
          "name": "price",
          "type": "uint256"
        }
      ],
      "name": "NFTListed",
      "type": "event"
    },
    {
      "anonymous": false,
      "inputs": [
        {
          "indexed": true,
          "internalType": "address",
          "name": "creator",
          "type": "address"
        },
        {
          "indexed": true,
          "internalType": "uint256",
          "name": "tokenId",
          "type": "uint256"
        }
      ],
      "name": "NFTMinted",
      "type": "event"
    },
    {
      "anonymous": false,
      "inputs": [
        {
          "indexed": true,
          "internalType": "address",
          "name": "previousOwner",
          "type": "address"
        },
        {
          "indexed": true,
          "internalType": "address",
          "name": "newOwner",
          "type": "address"
        }
      ],
      "name": "OwnershipTransferred",
      "type": "event"
    },
    {
      "anonymous": false,
      "inputs": [
        {
          "indexed": true,
          "internalType": "address",
          "name": "from",
          "type": "address"
        },
        {
          "indexed": true,
          "internalType": "address",
          "name": "to",
          "type": "address"
        },
        {
          "indexed": true,
          "internalType": "uint256",
          "name": "tokenId",
          "type": "uint256"
        }
      ],
      "name": "Transfer",
      "type": "event"
    },
    {
      "inputs": [
        {
          "internalType": "address",
          "name": "to",
          "type": "address"
        },
        {
          "internalType": "uint256",
          "name": "tokenId",
          "type": "uint256"
        }
      ],
      "name": "approve",
      "outputs": [],
      "stateMutability": "nonpayable",
      "type": "function"
    },
    {
      "inputs": [
        {
          "internalType": "uint256",
          "name": "",
          "type": "uint256"
        }
      ],
      "name": "auctions",
      "outputs": [
        {
          "internalType": "uint256",
          "name": "tokenId",
          "type": "uint256"
        },
        {
          "internalType": "address",
          "name": "seller",
          "type": "address"
        },
        {
          "internalType": "uint256",
          "name": "highestBid",
          "type": "uint256"
        },
        {
          "internalType": "address",
          "name": "highestBidder",
          "type": "address"
        },
        {
          "internalType": "uint256",
          "name": "endTime",
          "type": "uint256"
        },
        {
          "internalType": "bool",
          "name": "active",
          "type": "bool"
        }
      ],
      "stateMutability": "view",
      "type": "function"
    },
    {
      "inputs": [
        {
          "internalType": "address",
          "name": "owner",
          "type": "address"
        }
      ],
      "name": "balanceOf",
      "outputs": [
        {
          "internalType": "uint256",
          "name": "",
          "type": "uint256"
        }
      ],
      "stateMutability": "view",
      "type": "function"
    },
    {
      "inputs": [
        {
          "internalType": "uint256",
          "name": "tokenId",
          "type": "uint256"
        }
      ],
      "name": "buyNFT",
      "outputs": [],
      "stateMutability": "payable",
      "type": "function"
    },
    {
      "inputs": [],
      "name": "commissionFee",
      "outputs": [
        {
          "internalType": "uint256",
          "name": "",
          "type": "uint256"
        }
      ],
      "stateMutability": "view",
      "type": "function"
    },
    {
      "inputs": [
        {
          "internalType": "uint256",
          "name": "",
          "type": "uint256"
        }
      ],
      "name": "creatorOf",
      "outputs": [
        {
          "internalType": "address",
          "name": "",
          "type": "address"
        }
      ],
      "stateMutability": "view",
      "type": "function"
    },
    {
      "inputs": [
        {
          "internalType": "uint256",
          "name": "tokenId",
          "type": "uint256"
        }
      ],
      "name": "finalizeAuction",
      "outputs": [],
      "stateMutability": "nonpayable",
      "type": "function"
    },
    {
      "inputs": [
        {
          "internalType": "uint256",
          "name": "tokenId",
          "type": "uint256"
        }
      ],
      "name": "getApproved",
      "outputs": [
        {
          "internalType": "address",
          "name": "",
          "type": "address"
        }
      ],
      "stateMutability": "view",
      "type": "function"
    },
    {
      "inputs": [],
      "name": "getMarketplaceItems",
      "outputs": [
        {
          "components": [
            {
              "internalType": "uint256",
              "name": "tokenId",
              "type": "uint256"
            },
            {
              "internalType": "address",
              "name": "seller",
              "type": "address"
            },
            {
              "internalType": "uint256",
              "name": "price",
              "type": "uint256"
            },
            {
              "internalType": "bool",
              "name": "listed",
              "type": "bool"
            }
          ],
          "internalType": "struct NFTMarketPlace.NFT[]",
          "name": "",
          "type": "tuple[]"
        },
        {
          "components": [
            {
              "internalType": "uint256",
              "name": "tokenId",
              "type": "uint256"
            },
            {
              "internalType": "address",
              "name": "seller",
              "type": "address"
            },
            {
              "internalType": "uint256",
              "name": "highestBid",
              "type": "uint256"
            },
            {
              "internalType": "address",
              "name": "highestBidder",
              "type": "address"
            },
            {
              "internalType": "uint256",
              "name": "endTime",
              "type": "uint256"
            },
            {
              "internalType": "bool",
              "name": "active",
              "type": "bool"
            }
          ],
          "internalType": "struct NFTMarketPlace.Auction[]",
          "name": "",
          "type": "tuple[]"
        }
      ],
      "stateMutability": "view",
      "type": "function"
    },
    {
      "inputs": [
        {
          "internalType": "address",
          "name": "owner",
          "type": "address"
        }
      ],
      "name": "getOwnedTokens",
      "outputs": [
        {
          "internalType": "uint256[]",
          "name": "",
          "type": "uint256[]"
        }
      ],
      "stateMutability": "view",
      "type": "function"
    },
    {
      "inputs": [],
      "name": "getWalletNFTs",
      "outputs": [
        {
          "internalType": "uint256[]",
          "name": "",
          "type": "uint256[]"
        }
      ],
      "stateMutability": "view",
      "type": "function"
    },
    {
      "inputs": [
        {
          "internalType": "address",
          "name": "owner",
          "type": "address"
        },
        {
          "internalType": "address",
          "name": "operator",
          "type": "address"
        }
      ],
      "name": "isApprovedForAll",
      "outputs": [
        {
          "internalType": "bool",
          "name": "",
          "type": "bool"
        }
      ],
      "stateMutability": "view",
      "type": "function"
    },
    {
      "inputs": [
        {
          "internalType": "uint256",
          "name": "tokenId",
          "type": "uint256"
        },
        {
          "internalType": "uint256",
          "name": "price",
          "type": "uint256"
        }
      ],
      "name": "listNFT",
      "outputs": [],
      "stateMutability": "nonpayable",
      "type": "function"
    },
    {
      "inputs": [
        {
          "internalType": "uint256",
          "name": "royaltyPercent",
          "type": "uint256"
        },
        {
          "internalType": "string",
          "name": "_tokenURI",
          "type": "string"
        }
      ],
      "name": "mintNFT",
      "outputs": [],
      "stateMutability": "nonpayable",
      "type": "function"
    },
    {
      "inputs": [
        {
          "internalType": "uint256",
          "name": "",
          "type": "uint256"
        }
      ],
      "name": "mintedTokens",
      "outputs": [
        {
          "internalType": "bool",
          "name": "",
          "type": "bool"
        }
      ],
      "stateMutability": "view",
      "type": "function"
    },
    {
      "inputs": [],
      "name": "name",
      "outputs": [
        {
          "internalType": "string",
          "name": "",
          "type": "string"
        }
      ],
      "stateMutability": "view",
      "type": "function"
    },
    {
      "inputs": [],
      "name": "nextTokenId",
      "outputs": [
        {
          "internalType": "uint256",
          "name": "",
          "type": "uint256"
        }
      ],
      "stateMutability": "view",
      "type": "function"
    },
    {
      "inputs": [
        {
          "internalType": "uint256",
          "name": "",
          "type": "uint256"
        }
      ],
      "name": "nfts",
      "outputs": [
        {
          "internalType": "uint256",
          "name": "tokenId",
          "type": "uint256"
        },
        {
          "internalType": "address",
          "name": "seller",
          "type": "address"
        },
        {
          "internalType": "uint256",
          "name": "price",
          "type": "uint256"
        },
        {
          "internalType": "bool",
          "name": "listed",
          "type": "bool"
        }
      ],
      "stateMutability": "view",
      "type": "function"
    },
    {
      "inputs": [],
      "name": "owner",
      "outputs": [
        {
          "internalType": "address",
          "name": "",
          "type": "address"
        }
      ],
      "stateMutability": "view",
      "type": "function"
    },
    {
      "inputs": [
        {
          "internalType": "uint256",
          "name": "tokenId",
          "type": "uint256"
        }
      ],
      "name": "ownerOf",
      "outputs": [
        {
          "internalType": "address",
          "name": "",
          "type": "address"
        }
      ],
      "stateMutability": "view",
      "type": "function"
    },
    {
      "inputs": [
        {
          "internalType": "address",
          "name": "",
          "type": "address"
        }
      ],
      "name": "pendingWithdrawals",
      "outputs": [
        {
          "internalType": "uint256",
          "name": "",
          "type": "uint256"
        }
      ],
      "stateMutability": "view",
      "type": "function"
    },
    {
      "inputs": [
        {
          "internalType": "uint256",
          "name": "tokenId",
          "type": "uint256"
        }
      ],
      "name": "placeBid",
      "outputs": [],
      "stateMutability": "payable",
      "type": "function"
    },
    {
      "inputs": [],
      "name": "renounceOwnership",
      "outputs": [],
      "stateMutability": "nonpayable",
      "type": "function"
    },
    {
      "inputs": [
        {
          "internalType": "uint256",
          "name": "",
          "type": "uint256"
        }
      ],
      "name": "royalties",
      "outputs": [
        {
          "internalType": "uint256",
          "name": "",
          "type": "uint256"
        }
      ],
      "stateMutability": "view",
      "type": "function"
    },
    {
      "inputs": [
        {
          "internalType": "address",
          "name": "from",
          "type": "address"
        },
        {
          "internalType": "address",
          "name": "to",
          "type": "address"
        },
        {
          "internalType": "uint256",
          "name": "tokenId",
          "type": "uint256"
        }
      ],
      "name": "safeTransferFrom",
      "outputs": [],
      "stateMutability": "nonpayable",
      "type": "function"
    },
    {
      "inputs": [
        {
          "internalType": "address",
          "name": "from",
          "type": "address"
        },
        {
          "internalType": "address",
          "name": "to",
          "type": "address"
        },
        {
          "internalType": "uint256",
          "name": "tokenId",
          "type": "uint256"
        },
        {
          "internalType": "bytes",
          "name": "data",
          "type": "bytes"
        }
      ],
      "name": "safeTransferFrom",
      "outputs": [],
      "stateMutability": "nonpayable",
      "type": "function"
    },
    {
      "inputs": [
        {
          "internalType": "address",
          "name": "operator",
          "type": "address"
        },
        {
          "internalType": "bool",
          "name": "approved",
          "type": "bool"
        }
      ],
      "name": "setApprovalForAll",
      "outputs": [],
      "stateMutability": "nonpayable",
      "type": "function"
    },
    {
      "inputs": [
        {
          "internalType": "uint256",
          "name": "tokenId",
          "type": "uint256"
        },
        {
          "internalType": "uint256",
          "name": "duration",
          "type": "uint256"
        }
      ],
      "name": "startAuction",
      "outputs": [],
      "stateMutability": "nonpayable",
      "type": "function"
    },
    {
      "inputs": [
        {
          "internalType": "bytes4",
          "name": "interfaceId",
          "type": "bytes4"
        }
      ],
      "name": "supportsInterface",
      "outputs": [
        {
          "internalType": "bool",
          "name": "",
          "type": "bool"
        }
      ],
      "stateMutability": "view",
      "type": "function"
    },
    {
      "inputs": [],
      "name": "symbol",
      "outputs": [
        {
          "internalType": "string",
          "name": "",
          "type": "string"
        }
      ],
      "stateMutability": "view",
      "type": "function"
    },
    {
      "inputs": [
        {
          "internalType": "uint256",
          "name": "tokenId",
          "type": "uint256"
        }
      ],
      "name": "tokenURI",
      "outputs": [
        {
          "internalType": "string",
          "name": "",
          "type": "string"
        }
      ],
      "stateMutability": "view",
      "type": "function"
    },
    {
      "inputs": [],
      "name": "totalSupply",
      "outputs": [
        {
          "internalType": "uint256",
          "name": "",
          "type": "uint256"
        }
      ],
      "stateMutability": "view",
      "type": "function"
    },
    {
      "inputs": [
        {
          "internalType": "address",
          "name": "from",
          "type": "address"
        },
        {
          "internalType": "address",
          "name": "to",
          "type": "address"
        },
        {
          "internalType": "uint256",
          "name": "tokenId",
          "type": "uint256"
        }
      ],
      "name": "transferFrom",
      "outputs": [],
      "stateMutability": "nonpayable",
      "type": "function"
    },
    {
      "inputs": [
        {
          "internalType": "address",
          "name": "newOwner",
          "type": "address"
        }
      ],
      "name": "transferOwnership",
      "outputs": [],
      "stateMutability": "nonpayable",
      "type": "function"
    },
    {
      "inputs": [],
      "name": "withdrawFunds",
      "outputs": [],
      "stateMutability": "nonpayable",
      "type": "function"
    }
  ],
  "bytecode": "0x608060405260196009553480156200001657600080fd5b50336040518060400160405280600581526020017f4d794e46540000000000000000000000000000000000000000000000000000008152506040518060400160405280600481526020017f4d4e465400000000000000000000000000000000000000000000000000000000815250816000908162000095919062000477565b508060019081620000a7919062000477565b505050600073ffffffffffffffffffffffffffffffffffffffff168173ffffffffffffffffffffffffffffffffffffffff16036200011f5760006040517f1e4fbdf7000000000000000000000000000000000000000000000000000000008152600401620001169190620005a3565b60405180910390fd5b62000130816200013760201b60201c565b50620005c0565b6000600760009054906101000a900473ffffffffffffffffffffffffffffffffffffffff16905081600760006101000a81548173ffffffffffffffffffffffffffffffffffffffff021916908373ffffffffffffffffffffffffffffffffffffffff1602179055508173ffffffffffffffffffffffffffffffffffffffff168173ffffffffffffffffffffffffffffffffffffffff167f8be0079c531659141344cd1fd0a4f28419497f9722a3daafe3b4186f6b6457e060405160405180910390a35050565b600081519050919050565b7f4e487b7100000000000000000000000000000000000000000000000000000000600052604160045260246000fd5b7f4e487b7100000000000000000000000000000000000000000000000000000000600052602260045260246000fd5b600060028204905060018216806200027f57607f821691505b60208210810362000295576200029462000237565b5b50919050565b60008190508160005260206000209050919050565b60006020601f8301049050919050565b600082821b905092915050565b600060088302620002ff7fffffffffffffffffffffffffffffffffffffffffffffffffffffffffffffffff82620002c0565b6200030b8683620002c0565b95508019841693508086168417925050509392505050565b6000819050919050565b6000819050919050565b600062000358620003526200034c8462000323565b6200032d565b62000323565b9050919050565b6000819050919050565b620003748362000337565b6200038c62000383826200035f565b848454620002cd565b825550505050565b600090565b620003a362000394565b620003b081848462000369565b505050565b5b81811015620003d857620003cc60008262000399565b600181019050620003b6565b5050565b601f8211156200042757620003f1816200029b565b620003fc84620002b0565b810160208510156200040c578190505b620004246200041b85620002b0565b830182620003b5565b50505b505050565b600082821c905092915050565b60006200044c600019846008026200042c565b1980831691505092915050565b600062000467838362000439565b9150826002028217905092915050565b6200048282620001fd565b67ffffffffffffffff8111156200049e576200049d62000208565b5b620004aa825462000266565b620004b7828285620003dc565b600060209050601f831160018114620004ef5760008415620004da578287015190505b620004e6858262000459565b86555062000556565b601f198416620004ff866200029b565b60005b82811015620005295784890151825560018201915060208501945060208101905062000502565b8683101562000549578489015162000545601f89168262000439565b8355505b6001600288020188555050505b505050505050565b600073ffffffffffffffffffffffffffffffffffffffff82169050919050565b60006200058b826200055e565b9050919050565b6200059d816200057e565b82525050565b6000602082019050620005ba600083018462000592565b92915050565b61564a80620005d06000396000f3fe6080604052600436106102045760003560e01c8063715018a611610118578063a22cb465116100a0578063d9d616551161006f578063d9d616551461077a578063e8083863146107b7578063e985e9c5146107e0578063f2fde38b1461081d578063f3f437031461084657610204565b8063a22cb465146106bf578063aae46362146106e8578063b88d4fde14610714578063c87b56dd1461073d57610204565b806382ef0549116100e757806382ef0549146105f95780638da5cb5b1461062457806394383f141461064f57806395d89b41146106785780639979ef45146106a357610204565b8063715018a61461053d57806375794a3c146105545780637ef758d41461057f5780637f77f574146105bc57610204565b8063265aa6211161019b578063571a26a01161016a578063571a26a014610419578063589a17431461045b5780636352211e146104985780636fb1eb0c146104d557806370a082311461050057610204565b8063265aa6211461036b57806342842e0e146103ab5780634fee13fc146103d457806351ed8288146103fd57610204565b806318160ddd116101d757806318160ddd146102d75780631a0c8fa01461030257806323b872dd1461032b57806324600fc31461035457610204565b806301ffc9a71461020957806306fdde0314610246578063081812fc14610271578063095ea7b3146102ae575b600080fd5b34801561021557600080fd5b50610230600480360381019061022b9190613db7565b610883565b60405161023d9190613dff565b60405180910390f35b34801561025257600080fd5b5061025b6108e4565b6040516102689190613eaa565b60405180910390f35b34801561027d57600080fd5b5061029860048036038101906102939190613f02565b610976565b6040516102a59190613f70565b60405180910390f35b3480156102ba57600080fd5b506102d560048036038101906102d09190613fb7565b610992565b005b3480156102e357600080fd5b506102ec6109a8565b6040516102f99190614006565b60405180910390f35b34801561030e57600080fd5b5061032960048036038101906103249190614156565b6109b2565b005b34801561033757600080fd5b50610352600480360381019061034d91906141b2565b610b04565b005b34801561036057600080fd5b50610369610c06565b005b34801561037757600080fd5b50610392600480360381019061038d9190613f02565b610dd0565b6040516103a29493929190614205565b60405180910390f35b3480156103b757600080fd5b506103d260048036038101906103cd91906141b2565b610e2d565b005b3480156103e057600080fd5b506103fb60048036038101906103f6919061424a565b610e4d565b005b61041760048036038101906104129190613f02565b6110f8565b005b34801561042557600080fd5b50610440600480360381019061043b9190613f02565b6114be565b6040516104529695949392919061428a565b60405180910390f35b34801561046757600080fd5b50610482600480360381019061047d9190613f02565b611547565b60405161048f9190613f70565b60405180910390f35b3480156104a457600080fd5b506104bf60048036038101906104ba9190613f02565b61157a565b6040516104cc9190613f70565b60405180910390f35b3480156104e157600080fd5b506104ea61158c565b6040516104f79190614006565b60405180910390f35b34801561050c57600080fd5b50610527600480360381019061052291906142eb565b611592565b6040516105349190614006565b60405180910390f35b34801561054957600080fd5b5061055261164c565b005b34801561056057600080fd5b50610569611660565b6040516105769190614006565b60405180910390f35b34801561058b57600080fd5b506105a660048036038101906105a19190613f02565b611666565b6040516105b39190613dff565b60405180910390f35b3480156105c857600080fd5b506105e360048036038101906105de9190613f02565b611686565b6040516105f09190614006565b60405180910390f35b34801561060557600080fd5b5061060e61169e565b60405161061b91906143d6565b60405180910390f35b34801561063057600080fd5b5061063961184c565b6040516106469190613f70565b60405180910390f35b34801561065b57600080fd5b506106766004803603810190610671919061424a565b611876565b005b34801561068457600080fd5b5061068d611b34565b60405161069a9190613eaa565b60405180910390f35b6106bd60048036038101906106b89190613f02565b611bc6565b005b3480156106cb57600080fd5b506106e660048036038101906106e19190614424565b611e30565b005b3480156106f457600080fd5b506106fd611e46565b60405161070b9291906146b0565b60405180910390f35b34801561072057600080fd5b5061073b60048036038101906107369190614788565b61221d565b005b34801561074957600080fd5b50610764600480360381019061075f9190613f02565b612242565b6040516107719190613eaa565b60405180910390f35b34801561078657600080fd5b506107a1600480360381019061079c91906142eb565b6122b4565b6040516107ae91906143d6565b60405180910390f35b3480156107c357600080fd5b506107de60048036038101906107d99190613f02565b612464565b005b3480156107ec57600080fd5b506108076004803603810190610802919061480b565b6128c6565b6040516108149190613dff565b60405180910390f35b34801561082957600080fd5b50610844600480360381019061083f91906142eb565b61295a565b005b34801561085257600080fd5b5061086d600480360381019061086891906142eb565b6129e0565b60405161087a9190614006565b60405180910390f35b6000634906490660e01b7bffffffffffffffffffffffffffffffffffffffffffffffffffffffff1916827bffffffffffffffffffffffffffffffffffffffffffffffffffffffff191614806108dd57506108dc826129f8565b5b9050919050565b6060600080546108f39061487a565b80601f016020809104026020016040519081016040528092919081815260200182805461091f9061487a565b801561096c5780601f106109415761010080835404028352916020019161096c565b820191906000526020600020905b81548152906001019060200180831161094f57829003601f168201915b5050505050905090565b600061098182612ada565b5061098b82612b62565b9050919050565b6109a4828261099f612b9f565b612ba7565b5050565b6000600854905090565b6103e88211156109f7576040517f08c379a00000000000000000000000000000000000000000000000000000000081526004016109ee906148f7565b60405180910390fd5b60006001600854610a089190614946565b905080600881905550610a1b3382612bb9565b610a258183612cb2565b33600f600083815260200190815260200160002060006101000a81548173ffffffffffffffffffffffffffffffffffffffff021916908373ffffffffffffffffffffffffffffffffffffffff1602179055506001600e600083815260200190815260200160002060006101000a81548160ff02191690831515021790555082600b600083815260200190815260200160002081905550803373ffffffffffffffffffffffffffffffffffffffff167f4cc0a9c4a99ddc700de1af2c9f916a7cbfdb71f14801ccff94061ad1ef8a804060405160405180910390a3505050565b600073ffffffffffffffffffffffffffffffffffffffff168273ffffffffffffffffffffffffffffffffffffffff1603610b765760006040517f64a0ae92000000000000000000000000000000000000000000000000000000008152600401610b6d9190613f70565b60405180910390fd5b6000610b8a8383610b85612b9f565b612d0e565b90508373ffffffffffffffffffffffffffffffffffffffff168173ffffffffffffffffffffffffffffffffffffffff1614610c00578382826040517f64283d7b000000000000000000000000000000000000000000000000000000008152600401610bf79392919061497a565b60405180910390fd5b50505050565b6000600d60003373ffffffffffffffffffffffffffffffffffffffff1673ffffffffffffffffffffffffffffffffffffffff16815260200190815260200160002054905060008111610c8d576040517f08c379a0000000000000000000000000000000000000000000000000000000008152600401610c84906149fd565b60405180910390fd5b6000600d60003373ffffffffffffffffffffffffffffffffffffffff1673ffffffffffffffffffffffffffffffffffffffff1681526020019081526020016000208190555060003373ffffffffffffffffffffffffffffffffffffffff1682604051610cf890614a4e565b60006040518083038185875af1925050503d8060008114610d35576040519150601f19603f3d011682016040523d82523d6000602084013e610d3a565b606091505b5050905080610d7e576040517f08c379a0000000000000000000000000000000000000000000000000000000008152600401610d7590614aaf565b60405180910390fd5b3373ffffffffffffffffffffffffffffffffffffffff167feaff4b37086828766ad3268786972c0cd24259d4c87a80f9d3963a3c3d999b0d83604051610dc49190614006565b60405180910390a25050565b600a6020528060005260406000206000915090508060000154908060010160009054906101000a900473ffffffffffffffffffffffffffffffffffffffff16908060020154908060030160009054906101000a900460ff16905084565b610e488383836040518060200160405280600081525061221d565b505050565b600e600083815260200190815260200160002060009054906101000a900460ff16610ead576040517f08c379a0000000000000000000000000000000000000000000000000000000008152600401610ea490614b1b565b60405180910390fd5b3373ffffffffffffffffffffffffffffffffffffffff16610ecd8361157a565b73ffffffffffffffffffffffffffffffffffffffff1614610f23576040517f08c379a0000000000000000000000000000000000000000000000000000000008152600401610f1a90614b87565b60405180910390fd5b60008111610f66576040517f08c379a0000000000000000000000000000000000000000000000000000000008152600401610f5d90614bf3565b60405180910390fd5b6040518060c001604052808381526020013373ffffffffffffffffffffffffffffffffffffffff16815260200160008152602001600073ffffffffffffffffffffffffffffffffffffffff1681526020018242610fc39190614946565b815260200160011515815250600c60008481526020019081526020016000206000820151816000015560208201518160010160006101000a81548173ffffffffffffffffffffffffffffffffffffffff021916908373ffffffffffffffffffffffffffffffffffffffff1602179055506040820151816002015560608201518160030160006101000a81548173ffffffffffffffffffffffffffffffffffffffff021916908373ffffffffffffffffffffffffffffffffffffffff1602179055506080820151816004015560a08201518160050160006101000a81548160ff021916908315150217905550905050817ff8910119ddbef5440c54532457dfe8250a10ed39e583292818f44724b9e1344c82426110df9190614946565b6040516110ec9190614006565b60405180910390a25050565b6000600a600083815260200190815260200160002090508060030160009054906101000a900460ff16611160576040517f08c379a000000000000000000000000000000000000000000000000000000000815260040161115790614c5f565b60405180910390fd5b80600201543410156111a7576040517f08c379a000000000000000000000000000000000000000000000000000000000815260040161119e90614ccb565b60405180910390fd5b3073ffffffffffffffffffffffffffffffffffffffff166111c783610976565b73ffffffffffffffffffffffffffffffffffffffff16148061121357506112128160010160009054906101000a900473ffffffffffffffffffffffffffffffffffffffff16306128c6565b5b611252576040517f08c379a000000000000000000000000000000000000000000000000000000000815260040161124990614d37565b60405180910390fd5b60006103e8600954346112659190614d57565b61126f9190614dc8565b905060006103e8600b600086815260200190815260200160002054346112959190614d57565b61129f9190614dc8565b905060008183346112b09190614df9565b6112ba9190614df9565b905082600d60006112c961184c565b73ffffffffffffffffffffffffffffffffffffffff1673ffffffffffffffffffffffffffffffffffffffff16815260200190815260200160002060008282546113129190614946565b9250508190555080600d60008660010160009054906101000a900473ffffffffffffffffffffffffffffffffffffffff1673ffffffffffffffffffffffffffffffffffffffff1673ffffffffffffffffffffffffffffffffffffffff168152602001908152602001600020600082825461138c9190614946565b9250508190555081600d6000600f600089815260200190815260200160002060009054906101000a900473ffffffffffffffffffffffffffffffffffffffff1673ffffffffffffffffffffffffffffffffffffffff1673ffffffffffffffffffffffffffffffffffffffff16815260200190815260200160002060008282546114159190614946565b9250508190555061144b8460010160009054906101000a900473ffffffffffffffffffffffffffffffffffffffff163387612f28565b60008460030160006101000a81548160ff021916908315150217905550843373ffffffffffffffffffffffffffffffffffffffff167f38bb180d23818aef357ad4b3806bac3fa13c3492c0ac9d1727381fb2422aaada346040516114af9190614006565b60405180910390a35050505050565b600c6020528060005260406000206000915090508060000154908060010160009054906101000a900473ffffffffffffffffffffffffffffffffffffffff16908060020154908060030160009054906101000a900473ffffffffffffffffffffffffffffffffffffffff16908060040154908060050160009054906101000a900460ff16905086565b600f6020528060005260406000206000915054906101000a900473ffffffffffffffffffffffffffffffffffffffff1681565b600061158582612ada565b9050919050565b60095481565b60008073ffffffffffffffffffffffffffffffffffffffff168273ffffffffffffffffffffffffffffffffffffffff16036116055760006040517f89c62b640000000000000000000000000000000000000000000000000000000081526004016115fc9190613f70565b60405180910390fd5b600360008373ffffffffffffffffffffffffffffffffffffffff1673ffffffffffffffffffffffffffffffffffffffff168152602001908152602001600020549050919050565b611654613095565b61165e600061311c565b565b60085481565b600e6020528060005260406000206000915054906101000a900460ff1681565b600b6020528060005260406000206000915090505481565b606060006008549050600080600190505b82811161173d57600e600082815260200190815260200160002060009054906101000a900460ff16801561171657503373ffffffffffffffffffffffffffffffffffffffff166116fe8261157a565b73ffffffffffffffffffffffffffffffffffffffff16145b1561172a57818061172690614e2d565b9250505b808061173590614e2d565b9150506116af565b5060008167ffffffffffffffff81111561175a5761175961402b565b5b6040519080825280602002602001820160405280156117885781602001602082028036833780820191505090505b509050600080600190505b84811161184157600e600082815260200190815260200160002060009054906101000a900460ff1680156117fa57503373ffffffffffffffffffffffffffffffffffffffff166117e28261157a565b73ffffffffffffffffffffffffffffffffffffffff16145b1561182e578083838151811061181357611812614e75565b5b602002602001018181525050818061182a90614e2d565b9250505b808061183990614e2d565b915050611793565b508194505050505090565b6000600760009054906101000a900473ffffffffffffffffffffffffffffffffffffffff16905090565b600e600083815260200190815260200160002060009054906101000a900460ff166118d6576040517f08c379a00000000000000000000000000000000000000000000000000000000081526004016118cd90614b1b565b60405180910390fd5b3373ffffffffffffffffffffffffffffffffffffffff166118f68361157a565b73ffffffffffffffffffffffffffffffffffffffff161461194c576040517f08c379a000000000000000000000000000000000000000000000000000000000815260040161194390614b87565b60405180910390fd5b6000811161198f576040517f08c379a000000000000000000000000000000000000000000000000000000000815260040161198690614ef0565b60405180910390fd5b3073ffffffffffffffffffffffffffffffffffffffff166119af83610976565b73ffffffffffffffffffffffffffffffffffffffff1614806119d757506119d633306128c6565b5b611a16576040517f08c379a0000000000000000000000000000000000000000000000000000000008152600401611a0d90614f5c565b60405180910390fd5b60405180608001604052808381526020013373ffffffffffffffffffffffffffffffffffffffff16815260200182815260200160011515815250600a60008481526020019081526020016000206000820151816000015560208201518160010160006101000a81548173ffffffffffffffffffffffffffffffffffffffff021916908373ffffffffffffffffffffffffffffffffffffffff1602179055506040820151816002015560608201518160030160006101000a81548160ff021916908315150217905550905050813373ffffffffffffffffffffffffffffffffffffffff167fbbf44e68296791df5535457da734bf1017c4b233a740af6d7a89b9f1af4ecb4283604051611b289190614006565b60405180910390a35050565b606060018054611b439061487a565b80601f0160208091040260200160405190810160405280929190818152602001828054611b6f9061487a565b8015611bbc5780601f10611b9157610100808354040283529160200191611bbc565b820191906000526020600020905b815481529060010190602001808311611b9f57829003601f168201915b5050505050905090565b6000600c600083815260200190815260200160002090508060050160009054906101000a900460ff16611c2e576040517f08c379a0000000000000000000000000000000000000000000000000000000008152600401611c2590614fc8565b60405180910390fd5b80600401544210611c74576040517f08c379a0000000000000000000000000000000000000000000000000000000008152600401611c6b90615034565b60405180910390fd5b80600201543411611cba576040517f08c379a0000000000000000000000000000000000000000000000000000000008152600401611cb1906150a0565b60405180910390fd5b600073ffffffffffffffffffffffffffffffffffffffff168160030160009054906101000a900473ffffffffffffffffffffffffffffffffffffffff1673ffffffffffffffffffffffffffffffffffffffff1614611d91578060020154600d60008360030160009054906101000a900473ffffffffffffffffffffffffffffffffffffffff1673ffffffffffffffffffffffffffffffffffffffff1673ffffffffffffffffffffffffffffffffffffffff1681526020019081526020016000206000828254611d899190614946565b925050819055505b348160020181905550338160030160006101000a81548173ffffffffffffffffffffffffffffffffffffffff021916908373ffffffffffffffffffffffffffffffffffffffff1602179055503373ffffffffffffffffffffffffffffffffffffffff16827f0e54eff26401bf69b81b26f60bd85ef47f5d85275c1d268d84f68d6897431c4734604051611e249190614006565b60405180910390a35050565b611e42611e3b612b9f565b83836131e2565b5050565b606080600060085490506000806000600190505b838111611ee457600a600082815260200190815260200160002060030160009054906101000a900460ff1615611e99578280611e9590614e2d565b9350505b600c600082815260200190815260200160002060050160009054906101000a900460ff1615611ed1578180611ecd90614e2d565b9250505b8080611edc90614e2d565b915050611e5a565b5060008267ffffffffffffffff811115611f0157611f0061402b565b5b604051908082528060200260200182016040528015611f3a57816020015b611f27613ca7565b815260200190600190039081611f1f5790505b50905060008267ffffffffffffffff811115611f5957611f5861402b565b5b604051908082528060200260200182016040528015611f9257816020015b611f7f613ce7565b815260200190600190039081611f775790505b5090506000806000600190505b87811161220b57600a600082815260200190815260200160002060030160009054906101000a900460ff161561209f57600a6000828152602001908152602001600020604051806080016040529081600082015481526020016001820160009054906101000a900473ffffffffffffffffffffffffffffffffffffffff1673ffffffffffffffffffffffffffffffffffffffff1673ffffffffffffffffffffffffffffffffffffffff168152602001600282015481526020016003820160009054906101000a900460ff16151515158152505085848151811061208557612084614e75565b5b6020026020010181905250828061209b90614e2d565b9350505b600c600082815260200190815260200160002060050160009054906101000a900460ff16156121f857600c60008281526020019081526020016000206040518060c0016040529081600082015481526020016001820160009054906101000a900473ffffffffffffffffffffffffffffffffffffffff1673ffffffffffffffffffffffffffffffffffffffff1673ffffffffffffffffffffffffffffffffffffffff168152602001600282015481526020016003820160009054906101000a900473ffffffffffffffffffffffffffffffffffffffff1673ffffffffffffffffffffffffffffffffffffffff1673ffffffffffffffffffffffffffffffffffffffff168152602001600482015481526020016005820160009054906101000a900460ff1615151515815250508483815181106121de576121dd614e75565b5b602002602001018190525081806121f490614e2d565b9250505b808061220390614e2d565b915050611f9f565b50838398509850505050505050509091565b612228848484610b04565b61223c612233612b9f565b85858585613351565b50505050565b6060600e600083815260200190815260200160002060009054906101000a900460ff166122a4576040517f08c379a000000000000000000000000000000000000000000000000000000000815260040161229b90614b1b565b60405180910390fd5b6122ad82613502565b9050919050565b606060006008549050600080600190505b82811161235357600e600082815260200190815260200160002060009054906101000a900460ff16801561232c57508473ffffffffffffffffffffffffffffffffffffffff166123148261157a565b73ffffffffffffffffffffffffffffffffffffffff16145b1561234057818061233c90614e2d565b9250505b808061234b90614e2d565b9150506122c5565b5060008167ffffffffffffffff8111156123705761236f61402b565b5b60405190808252806020026020018201604052801561239e5781602001602082028036833780820191505090505b509050600080600190505b84811161245757600e600082815260200190815260200160002060009054906101000a900460ff16801561241057508673ffffffffffffffffffffffffffffffffffffffff166123f88261157a565b73ffffffffffffffffffffffffffffffffffffffff16145b15612444578083838151811061242957612428614e75565b5b602002602001018181525050818061244090614e2d565b9250505b808061244f90614e2d565b9150506123a9565b5081945050505050919050565b6000600c600083815260200190815260200160002090508060050160009054906101000a900460ff166124cc576040517f08c379a00000000000000000000000000000000000000000000000000000000081526004016124c39061510c565b60405180910390fd5b8060040154421015612513576040517f08c379a000000000000000000000000000000000000000000000000000000000815260040161250a90615178565b60405180910390fd5b60008160050160006101000a81548160ff021916908315150217905550600073ffffffffffffffffffffffffffffffffffffffff168160030160009054906101000a900473ffffffffffffffffffffffffffffffffffffffff1673ffffffffffffffffffffffffffffffffffffffff16146128c25760006103e8600954836002015461259f9190614d57565b6125a99190614dc8565b905060006103e8600b60008681526020019081526020016000205484600201546125d39190614d57565b6125dd9190614dc8565b90506000818385600201546125f29190614df9565b6125fc9190614df9565b90503073ffffffffffffffffffffffffffffffffffffffff1661261e86610976565b73ffffffffffffffffffffffffffffffffffffffff16148061266a57506126698460010160009054906101000a900473ffffffffffffffffffffffffffffffffffffffff16306128c6565b5b6126a9576040517f08c379a00000000000000000000000000000000000000000000000000000000081526004016126a09061520a565b60405180910390fd5b82600d60006126b661184c565b73ffffffffffffffffffffffffffffffffffffffff1673ffffffffffffffffffffffffffffffffffffffff16815260200190815260200160002060008282546126ff9190614946565b9250508190555080600d60008660010160009054906101000a900473ffffffffffffffffffffffffffffffffffffffff1673ffffffffffffffffffffffffffffffffffffffff1673ffffffffffffffffffffffffffffffffffffffff16815260200190815260200160002060008282546127799190614946565b9250508190555081600d6000600f600089815260200190815260200160002060009054906101000a900473ffffffffffffffffffffffffffffffffffffffff1673ffffffffffffffffffffffffffffffffffffffff1673ffffffffffffffffffffffffffffffffffffffff16815260200190815260200160002060008282546128029190614946565b9250508190555061285c8460010160009054906101000a900473ffffffffffffffffffffffffffffffffffffffff168560030160009054906101000a900473ffffffffffffffffffffffffffffffffffffffff1687612f28565b847f4d9113a1377d665eaa1f9168a9c9080f2e488cb820b10149de3d6d2e0f2780c78560030160009054906101000a900473ffffffffffffffffffffffffffffffffffffffff1686600201546040516128b692919061522a565b60405180910390a25050505b5050565b6000600560008473ffffffffffffffffffffffffffffffffffffffff1673ffffffffffffffffffffffffffffffffffffffff16815260200190815260200160002060008373ffffffffffffffffffffffffffffffffffffffff1673ffffffffffffffffffffffffffffffffffffffff16815260200190815260200160002060009054906101000a900460ff16905092915050565b612962613095565b600073ffffffffffffffffffffffffffffffffffffffff168173ffffffffffffffffffffffffffffffffffffffff16036129d45760006040517f1e4fbdf70000000000000000000000000000000000000000000000000000000081526004016129cb9190613f70565b60405180910390fd5b6129dd8161311c565b50565b600d6020528060005260406000206000915090505481565b60007f80ac58cd000000000000000000000000000000000000000000000000000000007bffffffffffffffffffffffffffffffffffffffffffffffffffffffff1916827bffffffffffffffffffffffffffffffffffffffffffffffffffffffff19161480612ac357507f5b5e139f000000000000000000000000000000000000000000000000000000007bffffffffffffffffffffffffffffffffffffffffffffffffffffffff1916827bffffffffffffffffffffffffffffffffffffffffffffffffffffffff1916145b80612ad35750612ad282613615565b5b9050919050565b600080612ae68361367f565b9050600073ffffffffffffffffffffffffffffffffffffffff168173ffffffffffffffffffffffffffffffffffffffff1603612b5957826040517f7e273289000000000000000000000000000000000000000000000000000000008152600401612b509190614006565b60405180910390fd5b80915050919050565b60006004600083815260200190815260200160002060009054906101000a900473ffffffffffffffffffffffffffffffffffffffff169050919050565b600033905090565b612bb483838360016136bc565b505050565b600073ffffffffffffffffffffffffffffffffffffffff168273ffffffffffffffffffffffffffffffffffffffff1603612c2b5760006040517f64a0ae92000000000000000000000000000000000000000000000000000000008152600401612c229190613f70565b60405180910390fd5b6000612c3983836000612d0e565b9050600073ffffffffffffffffffffffffffffffffffffffff168173ffffffffffffffffffffffffffffffffffffffff1614612cad5760006040517f73c6ac6e000000000000000000000000000000000000000000000000000000008152600401612ca49190613f70565b60405180910390fd5b505050565b80600660008481526020019081526020016000209081612cd291906153ff565b507ff8e1a15aba9398e019f0b49df1a4fde98ee17ae345cb5f6b5e2c27f5033e8ce782604051612d029190614006565b60405180910390a15050565b600080612d1a8461367f565b9050600073ffffffffffffffffffffffffffffffffffffffff168373ffffffffffffffffffffffffffffffffffffffff1614612d5c57612d5b818486613881565b5b600073ffffffffffffffffffffffffffffffffffffffff168173ffffffffffffffffffffffffffffffffffffffff1614612ded57612d9e6000856000806136bc565b6001600360008373ffffffffffffffffffffffffffffffffffffffff1673ffffffffffffffffffffffffffffffffffffffff168152602001908152602001600020600082825403925050819055505b600073ffffffffffffffffffffffffffffffffffffffff168573ffffffffffffffffffffffffffffffffffffffff1614612e70576001600360008773ffffffffffffffffffffffffffffffffffffffff1673ffffffffffffffffffffffffffffffffffffffff168152602001908152602001600020600082825401925050819055505b846002600086815260200190815260200160002060006101000a81548173ffffffffffffffffffffffffffffffffffffffff021916908373ffffffffffffffffffffffffffffffffffffffff160217905550838573ffffffffffffffffffffffffffffffffffffffff168273ffffffffffffffffffffffffffffffffffffffff167fddf252ad1be2c89b69c2b068fc378daa952ba7f163c4a11628f55a4df523b3ef60405160405180910390a4809150509392505050565b600073ffffffffffffffffffffffffffffffffffffffff168273ffffffffffffffffffffffffffffffffffffffff1603612f9a5760006040517f64a0ae92000000000000000000000000000000000000000000000000000000008152600401612f919190613f70565b60405180910390fd5b6000612fa883836000612d0e565b9050600073ffffffffffffffffffffffffffffffffffffffff168173ffffffffffffffffffffffffffffffffffffffff160361301b57816040517f7e2732890000000000000000000000000000000000000000000000000000000081526004016130129190614006565b60405180910390fd5b8373ffffffffffffffffffffffffffffffffffffffff168173ffffffffffffffffffffffffffffffffffffffff161461308f578382826040517f64283d7b0000000000000000000000000000000000000000000000000000000081526004016130869392919061497a565b60405180910390fd5b50505050565b61309d612b9f565b73ffffffffffffffffffffffffffffffffffffffff166130bb61184c565b73ffffffffffffffffffffffffffffffffffffffff161461311a576130de612b9f565b6040517f118cdaa70000000000000000000000000000000000000000000000000000000081526004016131119190613f70565b60405180910390fd5b565b6000600760009054906101000a900473ffffffffffffffffffffffffffffffffffffffff16905081600760006101000a81548173ffffffffffffffffffffffffffffffffffffffff021916908373ffffffffffffffffffffffffffffffffffffffff1602179055508173ffffffffffffffffffffffffffffffffffffffff168173ffffffffffffffffffffffffffffffffffffffff167f8be0079c531659141344cd1fd0a4f28419497f9722a3daafe3b4186f6b6457e060405160405180910390a35050565b600073ffffffffffffffffffffffffffffffffffffffff168273ffffffffffffffffffffffffffffffffffffffff160361325357816040517f5b08ba1800000000000000000000000000000000000000000000000000000000815260040161324a9190613f70565b60405180910390fd5b80600560008573ffffffffffffffffffffffffffffffffffffffff1673ffffffffffffffffffffffffffffffffffffffff16815260200190815260200160002060008473ffffffffffffffffffffffffffffffffffffffff1673ffffffffffffffffffffffffffffffffffffffff16815260200190815260200160002060006101000a81548160ff0219169083151502179055508173ffffffffffffffffffffffffffffffffffffffff168373ffffffffffffffffffffffffffffffffffffffff167f17307eab39ab6107e8899845ad3d59bd9653f200f220920489ca2b5937696c31836040516133449190613dff565b60405180910390a3505050565b60008373ffffffffffffffffffffffffffffffffffffffff163b11156134fb578273ffffffffffffffffffffffffffffffffffffffff1663150b7a02868685856040518563ffffffff1660e01b81526004016133b09493929190615526565b6020604051808303816000875af19250505080156133ec57506040513d601f19601f820116820180604052508101906133e99190615587565b60015b613470573d806000811461341c576040519150601f19603f3d011682016040523d82523d6000602084013e613421565b606091505b50600081510361346857836040517f64a0ae9200000000000000000000000000000000000000000000000000000000815260040161345f9190613f70565b60405180910390fd5b805160208201fd5b63150b7a0260e01b7bffffffffffffffffffffffffffffffffffffffffffffffffffffffff1916817bffffffffffffffffffffffffffffffffffffffffffffffffffffffff1916146134f957836040517f64a0ae920000000000000000000000000000000000000000000000000000000081526004016134f09190613f70565b60405180910390fd5b505b5050505050565b606061350d82612ada565b50600060066000848152602001908152602001600020805461352e9061487a565b80601f016020809104026020016040519081016040528092919081815260200182805461355a9061487a565b80156135a75780601f1061357c576101008083540402835291602001916135a7565b820191906000526020600020905b81548152906001019060200180831161358a57829003601f168201915b5050505050905060006135b8613945565b905060008151036135cd578192505050613610565b6000825111156136025780826040516020016135ea9291906155f0565b60405160208183030381529060405292505050613610565b61360b8461395c565b925050505b919050565b60007f01ffc9a7000000000000000000000000000000000000000000000000000000007bffffffffffffffffffffffffffffffffffffffffffffffffffffffff1916827bffffffffffffffffffffffffffffffffffffffffffffffffffffffff1916149050919050565b60006002600083815260200190815260200160002060009054906101000a900473ffffffffffffffffffffffffffffffffffffffff169050919050565b80806136f55750600073ffffffffffffffffffffffffffffffffffffffff168273ffffffffffffffffffffffffffffffffffffffff1614155b1561382957600061370584612ada565b9050600073ffffffffffffffffffffffffffffffffffffffff168373ffffffffffffffffffffffffffffffffffffffff161415801561377057508273ffffffffffffffffffffffffffffffffffffffff168173ffffffffffffffffffffffffffffffffffffffff1614155b8015613783575061378181846128c6565b155b156137c557826040517fa9fbf51f0000000000000000000000000000000000000000000000000000000081526004016137bc9190613f70565b60405180910390fd5b811561382757838573ffffffffffffffffffffffffffffffffffffffff168273ffffffffffffffffffffffffffffffffffffffff167f8c5be1e5ebec7d5bd14f71427d1e84f3dd0314c0f7b2291e5b200ac8c7c3b92560405160405180910390a45b505b836004600085815260200190815260200160002060006101000a81548173ffffffffffffffffffffffffffffffffffffffff021916908373ffffffffffffffffffffffffffffffffffffffff16021790555050505050565b61388c8383836139c5565b61394057600073ffffffffffffffffffffffffffffffffffffffff168373ffffffffffffffffffffffffffffffffffffffff160361390157806040517f7e2732890000000000000000000000000000000000000000000000000000000081526004016138f89190614006565b60405180910390fd5b81816040517f177e802f00000000000000000000000000000000000000000000000000000000815260040161393792919061522a565b60405180910390fd5b505050565b606060405180602001604052806000815250905090565b606061396782612ada565b506000613972613945565b9050600081511161399257604051806020016040528060008152506139bd565b8061399c84613a86565b6040516020016139ad9291906155f0565b6040516020818303038152906040525b915050919050565b60008073ffffffffffffffffffffffffffffffffffffffff168373ffffffffffffffffffffffffffffffffffffffff1614158015613a7d57508273ffffffffffffffffffffffffffffffffffffffff168473ffffffffffffffffffffffffffffffffffffffff161480613a3e5750613a3d84846128c6565b5b80613a7c57508273ffffffffffffffffffffffffffffffffffffffff16613a6483612b62565b73ffffffffffffffffffffffffffffffffffffffff16145b5b90509392505050565b606060006001613a9584613b54565b01905060008167ffffffffffffffff811115613ab457613ab361402b565b5b6040519080825280601f01601f191660200182016040528015613ae65781602001600182028036833780820191505090505b509050600082602083010190505b600115613b49578080600190039150507f3031323334353637383961626364656600000000000000000000000000000000600a86061a8153600a8581613b3d57613b3c614d99565b5b04945060008503613af4575b819350505050919050565b600080600090507a184f03e93ff9f4daa797ed6e38ed64bf6a1f0100000000000000008310613bb2577a184f03e93ff9f4daa797ed6e38ed64bf6a1f0100000000000000008381613ba857613ba7614d99565b5b0492506040810190505b6d04ee2d6d415b85acef81000000008310613bef576d04ee2d6d415b85acef81000000008381613be557613be4614d99565b5b0492506020810190505b662386f26fc100008310613c1e57662386f26fc100008381613c1457613c13614d99565b5b0492506010810190505b6305f5e1008310613c47576305f5e1008381613c3d57613c3c614d99565b5b0492506008810190505b6127108310613c6c576127108381613c6257613c61614d99565b5b0492506004810190505b60648310613c8f5760648381613c8557613c84614d99565b5b0492506002810190505b600a8310613c9e576001810190505b80915050919050565b604051806080016040528060008152602001600073ffffffffffffffffffffffffffffffffffffffff168152602001600081526020016000151581525090565b6040518060c0016040528060008152602001600073ffffffffffffffffffffffffffffffffffffffff16815260200160008152602001600073ffffffffffffffffffffffffffffffffffffffff168152602001600081526020016000151581525090565b6000604051905090565b600080fd5b600080fd5b60007fffffffff0000000000000000000000000000000000000000000000000000000082169050919050565b613d9481613d5f565b8114613d9f57600080fd5b50565b600081359050613db181613d8b565b92915050565b600060208284031215613dcd57613dcc613d55565b5b6000613ddb84828501613da2565b91505092915050565b60008115159050919050565b613df981613de4565b82525050565b6000602082019050613e146000830184613df0565b92915050565b600081519050919050565b600082825260208201905092915050565b60005b83811015613e54578082015181840152602081019050613e39565b60008484015250505050565b6000601f19601f8301169050919050565b6000613e7c82613e1a565b613e868185613e25565b9350613e96818560208601613e36565b613e9f81613e60565b840191505092915050565b60006020820190508181036000830152613ec48184613e71565b905092915050565b6000819050919050565b613edf81613ecc565b8114613eea57600080fd5b50565b600081359050613efc81613ed6565b92915050565b600060208284031215613f1857613f17613d55565b5b6000613f2684828501613eed565b91505092915050565b600073ffffffffffffffffffffffffffffffffffffffff82169050919050565b6000613f5a82613f2f565b9050919050565b613f6a81613f4f565b82525050565b6000602082019050613f856000830184613f61565b92915050565b613f9481613f4f565b8114613f9f57600080fd5b50565b600081359050613fb181613f8b565b92915050565b60008060408385031215613fce57613fcd613d55565b5b6000613fdc85828601613fa2565b9250506020613fed85828601613eed565b9150509250929050565b61400081613ecc565b82525050565b600060208201905061401b6000830184613ff7565b92915050565b600080fd5b600080fd5b7f4e487b7100000000000000000000000000000000000000000000000000000000600052604160045260246000fd5b61406382613e60565b810181811067ffffffffffffffff821117156140825761408161402b565b5b80604052505050565b6000614095613d4b565b90506140a1828261405a565b919050565b600067ffffffffffffffff8211156140c1576140c061402b565b5b6140ca82613e60565b9050602081019050919050565b82818337600083830152505050565b60006140f96140f4846140a6565b61408b565b90508281526020810184848401111561411557614114614026565b5b6141208482856140d7565b509392505050565b600082601f83011261413d5761413c614021565b5b813561414d8482602086016140e6565b91505092915050565b6000806040838503121561416d5761416c613d55565b5b600061417b85828601613eed565b925050602083013567ffffffffffffffff81111561419c5761419b613d5a565b5b6141a885828601614128565b9150509250929050565b6000806000606084860312156141cb576141ca613d55565b5b60006141d986828701613fa2565b93505060206141ea86828701613fa2565b92505060406141fb86828701613eed565b9150509250925092565b600060808201905061421a6000830187613ff7565b6142276020830186613f61565b6142346040830185613ff7565b6142416060830184613df0565b95945050505050565b6000806040838503121561426157614260613d55565b5b600061426f85828601613eed565b925050602061428085828601613eed565b9150509250929050565b600060c08201905061429f6000830189613ff7565b6142ac6020830188613f61565b6142b96040830187613ff7565b6142c66060830186613f61565b6142d36080830185613ff7565b6142e060a0830184613df0565b979650505050505050565b60006020828403121561430157614300613d55565b5b600061430f84828501613fa2565b91505092915050565b600081519050919050565b600082825260208201905092915050565b6000819050602082019050919050565b61434d81613ecc565b82525050565b600061435f8383614344565b60208301905092915050565b6000602082019050919050565b600061438382614318565b61438d8185614323565b935061439883614334565b8060005b838110156143c95781516143b08882614353565b97506143bb8361436b565b92505060018101905061439c565b5085935050505092915050565b600060208201905081810360008301526143f08184614378565b905092915050565b61440181613de4565b811461440c57600080fd5b50565b60008135905061441e816143f8565b92915050565b6000806040838503121561443b5761443a613d55565b5b600061444985828601613fa2565b925050602061445a8582860161440f565b9150509250929050565b600081519050919050565b600082825260208201905092915050565b6000819050602082019050919050565b61449981613f4f565b82525050565b6144a881613de4565b82525050565b6080820160008201516144c46000850182614344565b5060208201516144d76020850182614490565b5060408201516144ea6040850182614344565b5060608201516144fd606085018261449f565b50505050565b600061450f83836144ae565b60808301905092915050565b6000602082019050919050565b600061453382614464565b61453d818561446f565b935061454883614480565b8060005b838110156145795781516145608882614503565b975061456b8361451b565b92505060018101905061454c565b5085935050505092915050565b600081519050919050565b600082825260208201905092915050565b6000819050602082019050919050565b60c0820160008201516145c86000850182614344565b5060208201516145db6020850182614490565b5060408201516145ee6040850182614344565b5060608201516146016060850182614490565b5060808201516146146080850182614344565b5060a082015161462760a085018261449f565b50505050565b600061463983836145b2565b60c08301905092915050565b6000602082019050919050565b600061465d82614586565b6146678185614591565b9350614672836145a2565b8060005b838110156146a357815161468a888261462d565b975061469583614645565b925050600181019050614676565b5085935050505092915050565b600060408201905081810360008301526146ca8185614528565b905081810360208301526146de8184614652565b90509392505050565b600067ffffffffffffffff8211156147025761470161402b565b5b61470b82613e60565b9050602081019050919050565b600061472b614726846146e7565b61408b565b90508281526020810184848401111561474757614746614026565b5b6147528482856140d7565b509392505050565b600082601f83011261476f5761476e614021565b5b813561477f848260208601614718565b91505092915050565b600080600080608085870312156147a2576147a1613d55565b5b60006147b087828801613fa2565b94505060206147c187828801613fa2565b93505060406147d287828801613eed565b925050606085013567ffffffffffffffff8111156147f3576147f2613d5a565b5b6147ff8782880161475a565b91505092959194509250565b6000806040838503121561482257614821613d55565b5b600061483085828601613fa2565b925050602061484185828601613fa2565b9150509250929050565b7f4e487b7100000000000000000000000000000000000000000000000000000000600052602260045260246000fd5b6000600282049050600182168061489257607f821691505b6020821081036148a5576148a461484b565b5b50919050565b7f4d61782031303025000000000000000000000000000000000000000000000000600082015250565b60006148e1600883613e25565b91506148ec826148ab565b602082019050919050565b60006020820190508181036000830152614910816148d4565b9050919050565b7f4e487b7100000000000000000000000000000000000000000000000000000000600052601160045260246000fd5b600061495182613ecc565b915061495c83613ecc565b925082820190508082111561497457614973614917565b5b92915050565b600060608201905061498f6000830186613f61565b61499c6020830185613ff7565b6149a96040830184613f61565b949350505050565b7f4e6f2066756e647320746f207769746864726177000000000000000000000000600082015250565b60006149e7601483613e25565b91506149f2826149b1565b602082019050919050565b60006020820190508181036000830152614a16816149da565b9050919050565b600081905092915050565b50565b6000614a38600083614a1d565b9150614a4382614a28565b600082019050919050565b6000614a5982614a2b565b9150819050919050565b7f5472616e73666572206661696c65640000000000000000000000000000000000600082015250565b6000614a99600f83613e25565b9150614aa482614a63565b602082019050919050565b60006020820190508181036000830152614ac881614a8c565b9050919050565b7f546f6b656e20646f6573206e6f74206578697374000000000000000000000000600082015250565b6000614b05601483613e25565b9150614b1082614acf565b602082019050919050565b60006020820190508181036000830152614b3481614af8565b9050919050565b7f4e6f74206f776e65720000000000000000000000000000000000000000000000600082015250565b6000614b71600983613e25565b9150614b7c82614b3b565b602082019050919050565b60006020820190508181036000830152614ba081614b64565b9050919050565b7f4475726174696f6e203e20300000000000000000000000000000000000000000600082015250565b6000614bdd600c83613e25565b9150614be882614ba7565b602082019050919050565b60006020820190508181036000830152614c0c81614bd0565b9050919050565b7f4e4654206e6f74206c6973746564000000000000000000000000000000000000600082015250565b6000614c49600e83613e25565b9150614c5482614c13565b602082019050919050565b60006020820190508181036000830152614c7881614c3c565b9050919050565b7f496e73756666696369656e74207061796d656e74000000000000000000000000600082015250565b6000614cb5601483613e25565b9150614cc082614c7f565b602082019050919050565b60006020820190508181036000830152614ce481614ca8565b9050919050565b7f4d61726b6574706c616365206e6f7420617070726f76656420746f2073656c6c600082015250565b6000614d21602083613e25565b9150614d2c82614ceb565b602082019050919050565b60006020820190508181036000830152614d5081614d14565b9050919050565b6000614d6282613ecc565b9150614d6d83613ecc565b9250828202614d7b81613ecc565b91508282048414831517614d9257614d91614917565b5b5092915050565b7f4e487b7100000000000000000000000000000000000000000000000000000000600052601260045260246000fd5b6000614dd382613ecc565b9150614dde83613ecc565b925082614dee57614ded614d99565b5b828204905092915050565b6000614e0482613ecc565b9150614e0f83613ecc565b9250828203905081811115614e2757614e26614917565b5b92915050565b6000614e3882613ecc565b91507fffffffffffffffffffffffffffffffffffffffffffffffffffffffffffffffff8203614e6a57614e69614917565b5b600182019050919050565b7f4e487b7100000000000000000000000000000000000000000000000000000000600052603260045260246000fd5b7f5072696365206d757374206265203e2030000000000000000000000000000000600082015250565b6000614eda601183613e25565b9150614ee582614ea4565b602082019050919050565b60006020820190508181036000830152614f0981614ecd565b9050919050565b7f4d61726b6574706c616365206e6f7420617070726f7665640000000000000000600082015250565b6000614f46601883613e25565b9150614f5182614f10565b602082019050919050565b60006020820190508181036000830152614f7581614f39565b9050919050565b7f41756374696f6e206e6f74206163746976650000000000000000000000000000600082015250565b6000614fb2601283613e25565b9150614fbd82614f7c565b602082019050919050565b60006020820190508181036000830152614fe181614fa5565b9050919050565b7f41756374696f6e20656e64656400000000000000000000000000000000000000600082015250565b600061501e600d83613e25565b915061502982614fe8565b602082019050919050565b6000602082019050818103600083015261504d81615011565b9050919050565b7f42696420746f6f206c6f77000000000000000000000000000000000000000000600082015250565b600061508a600b83613e25565b915061509582615054565b602082019050919050565b600060208201905081810360008301526150b98161507d565b9050919050565b7f416c72656164792066696e616c697a6564000000000000000000000000000000600082015250565b60006150f6601183613e25565b9150615101826150c0565b602082019050919050565b60006020820190508181036000830152615125816150e9565b9050919050565b7f41756374696f6e206e6f7420656e646564000000000000000000000000000000600082015250565b6000615162601183613e25565b915061516d8261512c565b602082019050919050565b6000602082019050818103600083015261519181615155565b9050919050565b7f4d61726b6574706c616365206e6f7420617070726f76656420746f207472616e60008201527f7366657200000000000000000000000000000000000000000000000000000000602082015250565b60006151f4602483613e25565b91506151ff82615198565b604082019050919050565b60006020820190508181036000830152615223816151e7565b9050919050565b600060408201905061523f6000830185613f61565b61524c6020830184613ff7565b9392505050565b60008190508160005260206000209050919050565b60006020601f8301049050919050565b600082821b905092915050565b6000600883026152b57fffffffffffffffffffffffffffffffffffffffffffffffffffffffffffffffff82615278565b6152bf8683615278565b95508019841693508086168417925050509392505050565b6000819050919050565b60006152fc6152f76152f284613ecc565b6152d7565b613ecc565b9050919050565b6000819050919050565b615316836152e1565b61532a61532282615303565b848454615285565b825550505050565b600090565b61533f615332565b61534a81848461530d565b505050565b5b8181101561536e57615363600082615337565b600181019050615350565b5050565b601f8211156153b35761538481615253565b61538d84615268565b8101602085101561539c578190505b6153b06153a885615268565b83018261534f565b50505b505050565b600082821c905092915050565b60006153d6600019846008026153b8565b1980831691505092915050565b60006153ef83836153c5565b9150826002028217905092915050565b61540882613e1a565b67ffffffffffffffff8111156154215761542061402b565b5b61542b825461487a565b615436828285615372565b600060209050601f8311600181146154695760008415615457578287015190505b61546185826153e3565b8655506154c9565b601f19841661547786615253565b60005b8281101561549f5784890151825560018201915060208501945060208101905061547a565b868310156154bc57848901516154b8601f8916826153c5565b8355505b6001600288020188555050505b505050505050565b600081519050919050565b600082825260208201905092915050565b60006154f8826154d1565b61550281856154dc565b9350615512818560208601613e36565b61551b81613e60565b840191505092915050565b600060808201905061553b6000830187613f61565b6155486020830186613f61565b6155556040830185613ff7565b818103606083015261556781846154ed565b905095945050505050565b60008151905061558181613d8b565b92915050565b60006020828403121561559d5761559c613d55565b5b60006155ab84828501615572565b91505092915050565b600081905092915050565b60006155ca82613e1a565b6155d481856155b4565b93506155e4818560208601613e36565b80840191505092915050565b60006155fc82856155bf565b915061560882846155bf565b9150819050939250505056fea26469706673582212205eecaf9df2ac27f6d5a34a456dfe51a029f2010433d495006cedc5fadda3f9c064736f6c63430008140033",
  "linkReferences": {},
  "deployedLinkReferences": {}
}